{
  "abi": [
    {
      "type": "constructor",
      "inputs": [
        {
          "name": "_merkleRoot",
          "type": "bytes32",
          "internalType": "bytes32"
        },
        {
          "name": "_mintPrice",
          "type": "uint256",
          "internalType": "uint256"
        },
        {
          "name": "_defaultAdmin",
          "type": "address",
          "internalType": "address"
        },
        {
          "name": "_verifier",
          "type": "address",
          "internalType": "address"
        }
      ],
      "stateMutability": "nonpayable"
    },
    {
      "type": "function",
      "name": "DEFAULT_ADMIN_ROLE",
      "inputs": [],
      "outputs": [
        {
          "name": "",
          "type": "bytes32",
          "internalType": "bytes32"
        }
      ],
      "stateMutability": "view"
    },
    {
      "type": "function",
      "name": "MAINTENANCE_ROLE",
      "inputs": [],
      "outputs": [
        {
          "name": "",
          "type": "bytes32",
          "internalType": "bytes32"
        }
      ],
      "stateMutability": "view"
    },
    {
      "type": "function",
      "name": "approve",
      "inputs": [
        {
          "name": "to",
          "type": "address",
          "internalType": "address"
        },
        {
          "name": "tokenId",
          "type": "uint256",
          "internalType": "uint256"
        }
      ],
      "outputs": [],
      "stateMutability": "nonpayable"
    },
    {
      "type": "function",
      "name": "attributes",
      "inputs": [
        {
          "name": "",
          "type": "uint256",
          "internalType": "uint256"
        }
      ],
      "outputs": [
        {
          "name": "",
          "type": "uint256",
          "internalType": "uint256"
        }
      ],
      "stateMutability": "view"
    },
    {
      "type": "function",
      "name": "balanceOf",
      "inputs": [
        {
          "name": "owner",
          "type": "address",
          "internalType": "address"
        }
      ],
      "outputs": [
        {
          "name": "",
          "type": "uint256",
          "internalType": "uint256"
        }
      ],
      "stateMutability": "view"
    },
    {
      "type": "function",
      "name": "decodeAttributes",
      "inputs": [
        {
          "name": "encoded",
          "type": "uint256",
          "internalType": "uint256"
        }
      ],
      "outputs": [
        {
          "name": "capacity",
          "type": "uint256",
          "internalType": "uint256"
        },
        {
          "name": "attack",
          "type": "uint256",
          "internalType": "uint256"
        },
        {
          "name": "speed",
          "type": "uint256",
          "internalType": "uint256"
        },
        {
          "name": "shield",
          "type": "uint256",
          "internalType": "uint256"
        }
      ],
      "stateMutability": "pure"
    },
    {
      "type": "function",
      "name": "encodeAttributes",
      "inputs": [
        {
          "name": "capacity",
          "type": "uint256",
          "internalType": "uint256"
        },
        {
          "name": "attack",
          "type": "uint256",
          "internalType": "uint256"
        },
        {
          "name": "speed",
          "type": "uint256",
          "internalType": "uint256"
        },
        {
          "name": "shield",
          "type": "uint256",
          "internalType": "uint256"
        }
      ],
      "outputs": [
        {
          "name": "encoded",
          "type": "uint256",
          "internalType": "uint256"
        }
      ],
      "stateMutability": "pure"
    },
    {
      "type": "function",
      "name": "getApproved",
      "inputs": [
        {
          "name": "tokenId",
          "type": "uint256",
          "internalType": "uint256"
        }
      ],
      "outputs": [
        {
          "name": "",
          "type": "address",
          "internalType": "address"
        }
      ],
      "stateMutability": "view"
    },
    {
      "type": "function",
      "name": "getRoleAdmin",
      "inputs": [
        {
          "name": "role",
          "type": "bytes32",
          "internalType": "bytes32"
        }
      ],
      "outputs": [
        {
          "name": "",
          "type": "bytes32",
          "internalType": "bytes32"
        }
      ],
      "stateMutability": "view"
    },
    {
      "type": "function",
      "name": "grantRole",
      "inputs": [
        {
          "name": "role",
          "type": "bytes32",
          "internalType": "bytes32"
        },
        {
          "name": "account",
          "type": "address",
          "internalType": "address"
        }
      ],
      "outputs": [],
      "stateMutability": "nonpayable"
    },
    {
      "type": "function",
      "name": "hasRole",
      "inputs": [
        {
          "name": "role",
          "type": "bytes32",
          "internalType": "bytes32"
        },
        {
          "name": "account",
          "type": "address",
          "internalType": "address"
        }
      ],
      "outputs": [
        {
          "name": "",
          "type": "bool",
          "internalType": "bool"
        }
      ],
      "stateMutability": "view"
    },
    {
      "type": "function",
      "name": "isApprovedForAll",
      "inputs": [
        {
          "name": "owner",
          "type": "address",
          "internalType": "address"
        },
        {
          "name": "operator",
          "type": "address",
          "internalType": "address"
        }
      ],
      "outputs": [
        {
          "name": "",
          "type": "bool",
          "internalType": "bool"
        }
      ],
      "stateMutability": "view"
    },
    {
      "type": "function",
      "name": "maintenance",
      "inputs": [
        {
          "name": "_tokenId",
          "type": "uint256",
          "internalType": "uint256"
        },
        {
          "name": "_newAttribute",
          "type": "uint256",
          "internalType": "uint256"
        }
      ],
      "outputs": [],
      "stateMutability": "nonpayable"
    },
    {
      "type": "function",
      "name": "merkleRoot",
      "inputs": [],
      "outputs": [
        {
          "name": "",
          "type": "bytes32",
          "internalType": "bytes32"
        }
      ],
      "stateMutability": "view"
    },
    {
      "type": "function",
      "name": "mint",
      "inputs": [
        {
          "name": "_tokenId",
          "type": "uint256",
          "internalType": "uint256"
        },
        {
          "name": "_attributes",
          "type": "uint256",
          "internalType": "uint256"
        },
        {
          "name": "_proof",
          "type": "bytes32[]",
          "internalType": "bytes32[]"
        }
      ],
      "outputs": [],
      "stateMutability": "payable"
    },
    {
      "type": "function",
      "name": "mintPrice",
      "inputs": [],
      "outputs": [
        {
          "name": "",
          "type": "uint256",
          "internalType": "uint256"
        }
      ],
      "stateMutability": "view"
    },
    {
      "type": "function",
      "name": "name",
      "inputs": [],
      "outputs": [
        {
          "name": "",
          "type": "string",
          "internalType": "string"
        }
      ],
      "stateMutability": "view"
    },
    {
      "type": "function",
      "name": "ownerOf",
      "inputs": [
        {
          "name": "tokenId",
          "type": "uint256",
          "internalType": "uint256"
        }
      ],
      "outputs": [
        {
          "name": "",
          "type": "address",
          "internalType": "address"
        }
      ],
      "stateMutability": "view"
    },
    {
      "type": "function",
      "name": "renounceRole",
      "inputs": [
        {
          "name": "role",
          "type": "bytes32",
          "internalType": "bytes32"
        },
        {
          "name": "account",
          "type": "address",
          "internalType": "address"
        }
      ],
      "outputs": [],
      "stateMutability": "nonpayable"
    },
    {
      "type": "function",
      "name": "revokeRole",
      "inputs": [
        {
          "name": "role",
          "type": "bytes32",
          "internalType": "bytes32"
        },
        {
          "name": "account",
          "type": "address",
          "internalType": "address"
        }
      ],
      "outputs": [],
      "stateMutability": "nonpayable"
    },
    {
      "type": "function",
      "name": "safeTransferFrom",
      "inputs": [
        {
          "name": "from",
          "type": "address",
          "internalType": "address"
        },
        {
          "name": "to",
          "type": "address",
          "internalType": "address"
        },
        {
          "name": "tokenId",
          "type": "uint256",
          "internalType": "uint256"
        }
      ],
      "outputs": [],
      "stateMutability": "nonpayable"
    },
    {
      "type": "function",
      "name": "safeTransferFrom",
      "inputs": [
        {
          "name": "from",
          "type": "address",
          "internalType": "address"
        },
        {
          "name": "to",
          "type": "address",
          "internalType": "address"
        },
        {
          "name": "tokenId",
          "type": "uint256",
          "internalType": "uint256"
        },
        {
          "name": "data",
          "type": "bytes",
          "internalType": "bytes"
        }
      ],
      "outputs": [],
      "stateMutability": "nonpayable"
    },
    {
      "type": "function",
      "name": "setApprovalForAll",
      "inputs": [
        {
          "name": "operator",
          "type": "address",
          "internalType": "address"
        },
        {
          "name": "approved",
          "type": "bool",
          "internalType": "bool"
        }
      ],
      "outputs": [],
      "stateMutability": "nonpayable"
    },
    {
      "type": "function",
      "name": "supportsInterface",
      "inputs": [
        {
          "name": "interfaceId",
          "type": "bytes4",
          "internalType": "bytes4"
        }
      ],
      "outputs": [
        {
          "name": "",
          "type": "bool",
          "internalType": "bool"
        }
      ],
      "stateMutability": "view"
    },
    {
      "type": "function",
      "name": "symbol",
      "inputs": [],
      "outputs": [
        {
          "name": "",
          "type": "string",
          "internalType": "string"
        }
      ],
      "stateMutability": "view"
    },
    {
      "type": "function",
      "name": "tokenByIndex",
      "inputs": [
        {
          "name": "index",
          "type": "uint256",
          "internalType": "uint256"
        }
      ],
      "outputs": [
        {
          "name": "",
          "type": "uint256",
          "internalType": "uint256"
        }
      ],
      "stateMutability": "view"
    },
    {
      "type": "function",
      "name": "tokenMinted",
      "inputs": [
        {
          "name": "",
          "type": "uint256",
          "internalType": "uint256"
        }
      ],
      "outputs": [
        {
          "name": "",
          "type": "bool",
          "internalType": "bool"
        }
      ],
      "stateMutability": "view"
    },
    {
      "type": "function",
      "name": "tokenOfOwnerByIndex",
      "inputs": [
        {
          "name": "owner",
          "type": "address",
          "internalType": "address"
        },
        {
          "name": "index",
          "type": "uint256",
          "internalType": "uint256"
        }
      ],
      "outputs": [
        {
          "name": "",
          "type": "uint256",
          "internalType": "uint256"
        }
      ],
      "stateMutability": "view"
    },
    {
      "type": "function",
      "name": "tokenURI",
      "inputs": [
        {
          "name": "tokenId",
          "type": "uint256",
          "internalType": "uint256"
        }
      ],
      "outputs": [
        {
          "name": "",
          "type": "string",
          "internalType": "string"
        }
      ],
      "stateMutability": "view"
    },
    {
      "type": "function",
      "name": "totalSupply",
      "inputs": [],
      "outputs": [
        {
          "name": "",
          "type": "uint256",
          "internalType": "uint256"
        }
      ],
      "stateMutability": "view"
    },
    {
      "type": "function",
      "name": "transferFrom",
      "inputs": [
        {
          "name": "from",
          "type": "address",
          "internalType": "address"
        },
        {
          "name": "to",
          "type": "address",
          "internalType": "address"
        },
        {
          "name": "tokenId",
          "type": "uint256",
          "internalType": "uint256"
        }
      ],
      "outputs": [],
      "stateMutability": "nonpayable"
    },
    {
      "type": "function",
      "name": "updateMerkleRoot",
      "inputs": [
        {
          "name": "_newRoot",
          "type": "bytes32",
          "internalType": "bytes32"
        }
      ],
      "outputs": [],
      "stateMutability": "nonpayable"
    },
    {
      "type": "function",
      "name": "updateMintPrice",
      "inputs": [
        {
          "name": "_newPrice",
          "type": "uint256",
          "internalType": "uint256"
        }
      ],
      "outputs": [],
      "stateMutability": "nonpayable"
    },
    {
      "type": "function",
      "name": "verifier",
      "inputs": [],
      "outputs": [
        {
          "name": "",
          "type": "address",
          "internalType": "contract IAttributeVerifier"
        }
      ],
      "stateMutability": "view"
    },
    {
      "type": "event",
      "name": "Approval",
      "inputs": [
        {
          "name": "owner",
          "type": "address",
          "indexed": true,
          "internalType": "address"
        },
        {
          "name": "approved",
          "type": "address",
          "indexed": true,
          "internalType": "address"
        },
        {
          "name": "tokenId",
          "type": "uint256",
          "indexed": true,
          "internalType": "uint256"
        }
      ],
      "anonymous": false
    },
    {
      "type": "event",
      "name": "ApprovalForAll",
      "inputs": [
        {
          "name": "owner",
          "type": "address",
          "indexed": true,
          "internalType": "address"
        },
        {
          "name": "operator",
          "type": "address",
          "indexed": true,
          "internalType": "address"
        },
        {
          "name": "approved",
          "type": "bool",
          "indexed": false,
          "internalType": "bool"
        }
      ],
      "anonymous": false
    },
    {
      "type": "event",
      "name": "Minted",
      "inputs": [
        {
          "name": "minter",
          "type": "address",
          "indexed": false,
          "internalType": "address"
        },
        {
          "name": "tokenId",
          "type": "uint256",
          "indexed": false,
          "internalType": "uint256"
        }
      ],
      "anonymous": false
    },
    {
      "type": "event",
      "name": "RoleAdminChanged",
      "inputs": [
        {
          "name": "role",
          "type": "bytes32",
          "indexed": true,
          "internalType": "bytes32"
        },
        {
          "name": "previousAdminRole",
          "type": "bytes32",
          "indexed": true,
          "internalType": "bytes32"
        },
        {
          "name": "newAdminRole",
          "type": "bytes32",
          "indexed": true,
          "internalType": "bytes32"
        }
      ],
      "anonymous": false
    },
    {
      "type": "event",
      "name": "RoleGranted",
      "inputs": [
        {
          "name": "role",
          "type": "bytes32",
          "indexed": true,
          "internalType": "bytes32"
        },
        {
          "name": "account",
          "type": "address",
          "indexed": true,
          "internalType": "address"
        },
        {
          "name": "sender",
          "type": "address",
          "indexed": true,
          "internalType": "address"
        }
      ],
      "anonymous": false
    },
    {
      "type": "event",
      "name": "RoleRevoked",
      "inputs": [
        {
          "name": "role",
          "type": "bytes32",
          "indexed": true,
          "internalType": "bytes32"
        },
        {
          "name": "account",
          "type": "address",
          "indexed": true,
          "internalType": "address"
        },
        {
          "name": "sender",
          "type": "address",
          "indexed": true,
          "internalType": "address"
        }
      ],
      "anonymous": false
    },
    {
      "type": "event",
      "name": "Transfer",
      "inputs": [
        {
          "name": "from",
          "type": "address",
          "indexed": true,
          "internalType": "address"
        },
        {
          "name": "to",
          "type": "address",
          "indexed": true,
          "internalType": "address"
        },
        {
          "name": "tokenId",
          "type": "uint256",
          "indexed": true,
          "internalType": "uint256"
        }
      ],
      "anonymous": false
    }
  ],
  "bytecode": {
    "object": "0x60806040523480156200001157600080fd5b50604051620029df380380620029df83398101604081905262000034916200019f565b6040518060400160405280600a815260200169436f736d6f536869707360b01b815250604051806040016040528060048152602001634353535360e01b815250816000908162000085919062000291565b50600162000094828262000291565b5050600160075550600c849055600d839055620000b3600083620000dd565b600e80546001600160a01b0319166001600160a01b0392909216919091179055506200035d915050565b60008281526006602090815260408083206001600160a01b038516845290915290205460ff166200017e5760008281526006602090815260408083206001600160a01b03851684529091529020805460ff191660011790556200013d3390565b6001600160a01b0316816001600160a01b0316837f2f8788117e7eff1d82e926ec794901d17c78024a50270940304540a733656f0d60405160405180910390a45b5050565b80516001600160a01b03811681146200019a57600080fd5b919050565b60008060008060808587031215620001b657600080fd5b8451935060208501519250620001cf6040860162000182565b9150620001df6060860162000182565b905092959194509250565b634e487b7160e01b600052604160045260246000fd5b600181811c908216806200021557607f821691505b6020821081036200023657634e487b7160e01b600052602260045260246000fd5b50919050565b601f8211156200028c576000816000526020600020601f850160051c81016020861015620002675750805b601f850160051c820191505b81811015620002885782815560010162000273565b5050505b505050565b81516001600160401b03811115620002ad57620002ad620001ea565b620002c581620002be845462000200565b846200023c565b602080601f831160018114620002fd5760008415620002e45750858301515b600019600386901b1c1916600185901b17855562000288565b600085815260208120601f198616915b828110156200032e578886015182559484019460019091019084016200030d565b50858210156200034d5787850151600019600388901b60f8161c191681555b5050505050600190811b01905550565b612672806200036d6000396000f3fe6080604052600436106101f85760003560e01c80634783f0ef1161010d578063a22cb465116100a0578063d05dcc6a1161006f578063d05dcc6a146105e7578063d547741f14610614578063e6d37b8814610634578063e985e9c514610647578063ff4078d31461069057600080fd5b8063a22cb46514610567578063b88d4fde14610587578063bda22250146105a7578063c87b56dd146105c757600080fd5b806370a08231116100dc57806370a08231146104fd57806391d148541461051d57806395d89b411461053d578063a217fddf1461055257600080fd5b80634783f0ef146104875780634f6ccce7146104a75780636352211e146104c75780636817c76c146104e757600080fd5b806323b872dd116101905780632f2ff15d1161015f5780632f2ff15d146103c75780632f745c59146103e757806336568abe1461040757806342842e0e14610427578063464948131461044757600080fd5b806323b872dd14610341578063248a9ca3146103615780632b7ac3f3146103915780632eb4a7ab146103b157600080fd5b80630863e9fa116101cc5780630863e9fa146102ae578063095ea7b3146102ce57806318160ddd146102ee5780631dec5e071461030d57600080fd5b8062728e46146101fd57806301ffc9a71461021f57806306fdde0314610254578063081812fc14610276575b600080fd5b34801561020957600080fd5b5061021d610218366004611f21565b6106c0565b005b34801561022b57600080fd5b5061023f61023a366004611f50565b6106d1565b60405190151581526020015b60405180910390f35b34801561026057600080fd5b50610269610700565b60405161024b9190611fbd565b34801561028257600080fd5b50610296610291366004611f21565b610792565b6040516001600160a01b03909116815260200161024b565b3480156102ba57600080fd5b5061021d6102c9366004611fd0565b6107b9565b3480156102da57600080fd5b5061021d6102e936600461200e565b6107f6565b3480156102fa57600080fd5b50600a545b60405190815260200161024b565b34801561031957600080fd5b506102ff7fb06fd1d7ac3cc9ad93e77413fab9fcd3bbd887f5685e519e34e0e80802d074ee81565b34801561034d57600080fd5b5061021d61035c366004612038565b610910565b34801561036d57600080fd5b506102ff61037c366004611f21565b60009081526006602052604090206001015490565b34801561039d57600080fd5b50600e54610296906001600160a01b031681565b3480156103bd57600080fd5b506102ff600c5481565b3480156103d357600080fd5b5061021d6103e2366004612074565b610941565b3480156103f357600080fd5b506102ff61040236600461200e565b610966565b34801561041357600080fd5b5061021d610422366004612074565b6109fc565b34801561043357600080fd5b5061021d610442366004612038565b610a7a565b34801561045357600080fd5b50610467610462366004611f21565b610a95565b60408051948552602085019390935291830152606082015260800161024b565b34801561049357600080fd5b5061021d6104a2366004611f21565b610aed565b3480156104b357600080fd5b506102ff6104c2366004611f21565b610afe565b3480156104d357600080fd5b506102966104e2366004611f21565b610b91565b3480156104f357600080fd5b506102ff600d5481565b34801561050957600080fd5b506102ff6105183660046120a0565b610bf1565b34801561052957600080fd5b5061023f610538366004612074565b610c77565b34801561054957600080fd5b50610269610ca2565b34801561055e57600080fd5b506102ff600081565b34801561057357600080fd5b5061021d6105823660046120c9565b610cb1565b34801561059357600080fd5b5061021d6105a2366004612116565b610cbc565b3480156105b357600080fd5b506102ff6105c23660046121f2565b610cf4565b3480156105d357600080fd5b506102696105e2366004611f21565b610dd2565b3480156105f357600080fd5b506102ff610602366004611f21565b60106020526000908152604090205481565b34801561062057600080fd5b5061021d61062f366004612074565b610e46565b61021d610642366004612224565b610e6b565b34801561065357600080fd5b5061023f6106623660046122a7565b6001600160a01b03918216600090815260056020908152604080832093909416825291909152205460ff1690565b34801561069c57600080fd5b5061023f6106ab366004611f21565b600f6020526000908152604090205460ff1681565b60006106cb8161103b565b50600d55565b60006106dc82611048565b806106eb57506106eb82611098565b806106fa57506106fa82611098565b92915050565b60606000805461070f906122d1565b80601f016020809104026020016040519081016040528092919081815260200182805461073b906122d1565b80156107885780601f1061075d57610100808354040283529160200191610788565b820191906000526020600020905b81548152906001019060200180831161076b57829003601f168201915b5050505050905090565b600061079d826110bd565b506000908152600460205260409020546001600160a01b031690565b7fb06fd1d7ac3cc9ad93e77413fab9fcd3bbd887f5685e519e34e0e80802d074ee6107e38161103b565b5060009182526010602052604090912055565b600061080182610b91565b9050806001600160a01b0316836001600160a01b0316036108735760405162461bcd60e51b815260206004820152602160248201527f4552433732313a20617070726f76616c20746f2063757272656e74206f776e656044820152603960f91b60648201526084015b60405180910390fd5b336001600160a01b038216148061088f575061088f8133610662565b6109015760405162461bcd60e51b815260206004820152603d60248201527f4552433732313a20617070726f76652063616c6c6572206973206e6f7420746f60448201527f6b656e206f776e6572206f7220617070726f76656420666f7220616c6c000000606482015260840161086a565b61090b838361111c565b505050565b61091a338261118a565b6109365760405162461bcd60e51b815260040161086a9061230b565b61090b838383611208565b60008281526006602052604090206001015461095c8161103b565b61090b8383611379565b600061097183610bf1565b82106109d35760405162461bcd60e51b815260206004820152602b60248201527f455243373231456e756d657261626c653a206f776e657220696e646578206f7560448201526a74206f6620626f756e647360a81b606482015260840161086a565b506001600160a01b03919091166000908152600860209081526040808320938352929052205490565b6001600160a01b0381163314610a6c5760405162461bcd60e51b815260206004820152602f60248201527f416363657373436f6e74726f6c3a2063616e206f6e6c792072656e6f756e636560448201526e103937b632b9903337b91039b2b63360891b606482015260840161086a565b610a7682826113ff565b5050565b61090b83838360405180602001604052806000815250610cbc565b6000808080610aac600f600c87901c16600261236e565b9350610ac0600f600887901c16600261236e565b9250610ad4600f600487901c16600261236e565b9150610ae4600f8616600261236e565b90509193509193565b6000610af88161103b565b50600c55565b6000610b09600a5490565b8210610b6c5760405162461bcd60e51b815260206004820152602c60248201527f455243373231456e756d657261626c653a20676c6f62616c20696e646578206f60448201526b7574206f6620626f756e647360a01b606482015260840161086a565b600a8281548110610b7f57610b7f612381565b90600052602060002001549050919050565b6000818152600260205260408120546001600160a01b0316806106fa5760405162461bcd60e51b8152602060048201526018602482015277115490cdcc8c4e881a5b9d985b1a59081d1bdad95b88125160421b604482015260640161086a565b60006001600160a01b038216610c5b5760405162461bcd60e51b815260206004820152602960248201527f4552433732313a2061646472657373207a65726f206973206e6f7420612076616044820152683634b21037bbb732b960b91b606482015260840161086a565b506001600160a01b031660009081526003602052604090205490565b60009182526006602090815260408084206001600160a01b0393909316845291905290205460ff1690565b60606001805461070f906122d1565b610a76338383611466565b610cc6338361118a565b610ce25760405162461bcd60e51b815260040161086a9061230b565b610cee84848484611534565b50505050565b6000610cff85611567565b610d1b5760405162461bcd60e51b815260040161086a90612397565b610d2484611567565b610d405760405162461bcd60e51b815260040161086a90612397565b610d4983611567565b610d655760405162461bcd60e51b815260040161086a90612397565b610d6e82611567565b610d8a5760405162461bcd60e51b815260040161086a90612397565b506000600c610d9a6002876123e5565b901b176008610daa6002866123e5565b901b176004610dba6002856123e5565b901b17610dc86002836123e5565b175b949350505050565b6060610ddd826110bd565b6000610df460408051602081019091526000815290565b90506000815111610e145760405180602001604052806000815250610e3f565b80610e1e8461157d565b604051602001610e2f9291906123f8565b6040516020818303038152906040525b9392505050565b600082815260066020526040902060010154610e618161103b565b61090b83836113ff565b610e73611610565b600d543414610ebc5760405162461bcd60e51b8152602060048201526015602482015274125b98dbdc9c9958dd081c185e5b595b881cd95b9d605a1b604482015260640161086a565b6000848152600f602052604090205460ff1615610f125760405162461bcd60e51b8152602060048201526014602482015273151bdad95b88185b1c9958591e481b5a5b9d195960621b604482015260640161086a565b600e54600c54604051638bb9286360e01b81526001600160a01b0390921691638bb9286391610f4b91869086908a908a90600401612427565b602060405180830381865afa158015610f68573d6000803e3d6000fd5b505050506040513d601f19601f82011682018060405250810190610f8c9190612475565b610fc85760405162461bcd60e51b815260206004820152600d60248201526c24b73b30b634b210383937b7b360991b604482015260640161086a565b6000848152600f60209081526040808320805460ff1916600117905560109091529020839055610ff83385611669565b60408051338152602081018690527f30385c845b448a36257a6a1716e6ad2e1bc2cbe333cde1e69fe849ad6511adfe910160405180910390a1610cee6001600755565b6110458133611683565b50565b60006001600160e01b031982166380ac58cd60e01b148061107957506001600160e01b03198216635b5e139f60e01b145b806106fa57506301ffc9a760e01b6001600160e01b03198316146106fa565b60006001600160e01b0319821663780e9d6360e01b14806106fa57506106fa826116dc565b6000818152600260205260409020546001600160a01b03166110455760405162461bcd60e51b8152602060048201526018602482015277115490cdcc8c4e881a5b9d985b1a59081d1bdad95b88125160421b604482015260640161086a565b600081815260046020526040902080546001600160a01b0319166001600160a01b038416908117909155819061115182610b91565b6001600160a01b03167f8c5be1e5ebec7d5bd14f71427d1e84f3dd0314c0f7b2291e5b200ac8c7c3b92560405160405180910390a45050565b60008061119683610b91565b9050806001600160a01b0316846001600160a01b031614806111dd57506001600160a01b0380821660009081526005602090815260408083209388168352929052205460ff165b80610dca5750836001600160a01b03166111f684610792565b6001600160a01b031614949350505050565b826001600160a01b031661121b82610b91565b6001600160a01b0316146112415760405162461bcd60e51b815260040161086a90612492565b6001600160a01b0382166112a35760405162461bcd60e51b8152602060048201526024808201527f4552433732313a207472616e7366657220746f20746865207a65726f206164646044820152637265737360e01b606482015260840161086a565b6112b08383836001611701565b826001600160a01b03166112c382610b91565b6001600160a01b0316146112e95760405162461bcd60e51b815260040161086a90612492565b600081815260046020908152604080832080546001600160a01b03199081169091556001600160a01b0387811680865260038552838620805460001901905590871680865283862080546001019055868652600290945282852080549092168417909155905184937fddf252ad1be2c89b69c2b068fc378daa952ba7f163c4a11628f55a4df523b3ef91a4505050565b6113838282610c77565b610a765760008281526006602090815260408083206001600160a01b03851684529091529020805460ff191660011790556113bb3390565b6001600160a01b0316816001600160a01b0316837f2f8788117e7eff1d82e926ec794901d17c78024a50270940304540a733656f0d60405160405180910390a45050565b6114098282610c77565b15610a765760008281526006602090815260408083206001600160a01b0385168085529252808320805460ff1916905551339285917ff6391f5c32d9c69d2a47ea670b442974b53935d1edc7fd64eb21e047a839171b9190a45050565b816001600160a01b0316836001600160a01b0316036114c75760405162461bcd60e51b815260206004820152601960248201527f4552433732313a20617070726f766520746f2063616c6c657200000000000000604482015260640161086a565b6001600160a01b03838116600081815260056020908152604080832094871680845294825291829020805460ff191686151590811790915591519182527f17307eab39ab6107e8899845ad3d59bd9653f200f220920489ca2b5937696c31910160405180910390a3505050565b61153f848484611208565b61154b8484848461170d565b610cee5760405162461bcd60e51b815260040161086a906124d7565b6000600282101580156106fa5750506011101590565b6060600061158a8361180b565b600101905060008167ffffffffffffffff8111156115aa576115aa612100565b6040519080825280601f01601f1916602001820160405280156115d4576020820181803683370190505b5090508181016020015b600019016f181899199a1a9b1b9c1cb0b131b232b360811b600a86061a8153600a85049450846115de57509392505050565b6002600754036116625760405162461bcd60e51b815260206004820152601f60248201527f5265656e7472616e637947756172643a207265656e7472616e742063616c6c00604482015260640161086a565b6002600755565b610a768282604051806020016040528060008152506118e3565b61168d8282610c77565b610a765761169a81611916565b6116a5836020611928565b6040516020016116b6929190612529565b60408051601f198184030181529082905262461bcd60e51b825261086a91600401611fbd565b60006001600160e01b03198216637965db0b60e01b14806106fa57506106fa82611048565b610cee84848484611ac4565b60006001600160a01b0384163b1561180357604051630a85bd0160e11b81526001600160a01b0385169063150b7a029061175190339089908890889060040161259e565b6020604051808303816000875af192505050801561178c575060408051601f3d908101601f19168201909252611789918101906125db565b60015b6117e9573d8080156117ba576040519150601f19603f3d011682016040523d82523d6000602084013e6117bf565b606091505b5080516000036117e15760405162461bcd60e51b815260040161086a906124d7565b805181602001fd5b6001600160e01b031916630a85bd0160e11b149050610dca565b506001610dca565b60008072184f03e93ff9f4daa797ed6e38ed64bf6a1f0160401b831061184a5772184f03e93ff9f4daa797ed6e38ed64bf6a1f0160401b830492506040015b6d04ee2d6d415b85acef81000000008310611876576d04ee2d6d415b85acef8100000000830492506020015b662386f26fc10000831061189457662386f26fc10000830492506010015b6305f5e10083106118ac576305f5e100830492506008015b61271083106118c057612710830492506004015b606483106118d2576064830492506002015b600a83106106fa5760010192915050565b6118ed8383611bf8565b6118fa600084848461170d565b61090b5760405162461bcd60e51b815260040161086a906124d7565b60606106fa6001600160a01b03831660145b606060006119378360026125f8565b61194290600261236e565b67ffffffffffffffff81111561195a5761195a612100565b6040519080825280601f01601f191660200182016040528015611984576020820181803683370190505b509050600360fc1b8160008151811061199f5761199f612381565b60200101906001600160f81b031916908160001a905350600f60fb1b816001815181106119ce576119ce612381565b60200101906001600160f81b031916908160001a90535060006119f28460026125f8565b6119fd90600161236e565b90505b6001811115611a75576f181899199a1a9b1b9c1cb0b131b232b360811b85600f1660108110611a3157611a31612381565b1a60f81b828281518110611a4757611a47612381565b60200101906001600160f81b031916908160001a90535060049490941c93611a6e8161260f565b9050611a00565b508315610e3f5760405162461bcd60e51b815260206004820181905260248201527f537472696e67733a20686578206c656e67746820696e73756666696369656e74604482015260640161086a565b6001811115611b335760405162461bcd60e51b815260206004820152603560248201527f455243373231456e756d657261626c653a20636f6e7365637574697665207472604482015274185b9cd9995c9cc81b9bdd081cdd5c1c1bdc9d1959605a1b606482015260840161086a565b816001600160a01b038516611b8f57611b8a81600a80546000838152600b60205260408120829055600182018355919091527fc65a7bb8d6351c1cf70c95a316cc6a92839c986682d98bc35f958f4883f9d2a80155565b611bb2565b836001600160a01b0316856001600160a01b031614611bb257611bb28582611d91565b6001600160a01b038416611bce57611bc981611e2e565b611bf1565b846001600160a01b0316846001600160a01b031614611bf157611bf18482611edd565b5050505050565b6001600160a01b038216611c4e5760405162461bcd60e51b815260206004820181905260248201527f4552433732313a206d696e7420746f20746865207a65726f2061646472657373604482015260640161086a565b6000818152600260205260409020546001600160a01b031615611cb35760405162461bcd60e51b815260206004820152601c60248201527f4552433732313a20746f6b656e20616c7265616479206d696e74656400000000604482015260640161086a565b611cc1600083836001611701565b6000818152600260205260409020546001600160a01b031615611d265760405162461bcd60e51b815260206004820152601c60248201527f4552433732313a20746f6b656e20616c7265616479206d696e74656400000000604482015260640161086a565b6001600160a01b038216600081815260036020908152604080832080546001019055848352600290915280822080546001600160a01b0319168417905551839291907fddf252ad1be2c89b69c2b068fc378daa952ba7f163c4a11628f55a4df523b3ef908290a45050565b60006001611d9e84610bf1565b611da891906123e5565b600083815260096020526040902054909150808214611dfb576001600160a01b03841660009081526008602090815260408083208584528252808320548484528184208190558352600990915290208190555b5060009182526009602090815260408084208490556001600160a01b039094168352600881528383209183525290812055565b600a54600090611e40906001906123e5565b6000838152600b6020526040812054600a8054939450909284908110611e6857611e68612381565b9060005260206000200154905080600a8381548110611e8957611e89612381565b6000918252602080832090910192909255828152600b9091526040808220849055858252812055600a805480611ec157611ec1612626565b6001900381819060005260206000200160009055905550505050565b6000611ee883610bf1565b6001600160a01b039093166000908152600860209081526040808320868452825280832085905593825260099052919091209190915550565b600060208284031215611f3357600080fd5b5035919050565b6001600160e01b03198116811461104557600080fd5b600060208284031215611f6257600080fd5b8135610e3f81611f3a565b60005b83811015611f88578181015183820152602001611f70565b50506000910152565b60008151808452611fa9816020860160208601611f6d565b601f01601f19169290920160200192915050565b602081526000610e3f6020830184611f91565b60008060408385031215611fe357600080fd5b50508035926020909101359150565b80356001600160a01b038116811461200957600080fd5b919050565b6000806040838503121561202157600080fd5b61202a83611ff2565b946020939093013593505050565b60008060006060848603121561204d57600080fd5b61205684611ff2565b925061206460208501611ff2565b9150604084013590509250925092565b6000806040838503121561208757600080fd5b8235915061209760208401611ff2565b90509250929050565b6000602082840312156120b257600080fd5b610e3f82611ff2565b801515811461104557600080fd5b600080604083850312156120dc57600080fd5b6120e583611ff2565b915060208301356120f5816120bb565b809150509250929050565b634e487b7160e01b600052604160045260246000fd5b6000806000806080858703121561212c57600080fd5b61213585611ff2565b935061214360208601611ff2565b925060408501359150606085013567ffffffffffffffff8082111561216757600080fd5b818701915087601f83011261217b57600080fd5b81358181111561218d5761218d612100565b604051601f8201601f19908116603f011681019083821181831017156121b5576121b5612100565b816040528281528a60208487010111156121ce57600080fd5b82602086016020830137600060208483010152809550505050505092959194509250565b6000806000806080858703121561220857600080fd5b5050823594602084013594506040840135936060013592509050565b6000806000806060858703121561223a57600080fd5b8435935060208501359250604085013567ffffffffffffffff8082111561226057600080fd5b818701915087601f83011261227457600080fd5b81358181111561228357600080fd5b8860208260051b850101111561229857600080fd5b95989497505060200194505050565b600080604083850312156122ba57600080fd5b6122c383611ff2565b915061209760208401611ff2565b600181811c908216806122e557607f821691505b60208210810361230557634e487b7160e01b600052602260045260246000fd5b50919050565b6020808252602d908201527f4552433732313a2063616c6c6572206973206e6f7420746f6b656e206f776e6560408201526c1c881bdc88185c1c1c9bdd9959609a1b606082015260800190565b634e487b7160e01b600052601160045260246000fd5b808201808211156106fa576106fa612358565b634e487b7160e01b600052603260045260246000fd5b6020808252602e908201527f41747472696275746573206d757374206265206265747765656e203220616e6460408201526d10189b9034b731b63ab9b4bb329760911b606082015260800190565b818103818111156106fa576106fa612358565b6000835161240a818460208801611f6d565b83519083019061241e818360208801611f6d565b01949350505050565b858152608060208201819052810184905260006001600160fb1b0385111561244e57600080fd5b8460051b808760a085013760408301949094525060608101919091520160a0019392505050565b60006020828403121561248757600080fd5b8151610e3f816120bb565b60208082526025908201527f4552433732313a207472616e736665722066726f6d20696e636f72726563742060408201526437bbb732b960d91b606082015260800190565b60208082526032908201527f4552433732313a207472616e7366657220746f206e6f6e20455243373231526560408201527131b2b4bb32b91034b6b83632b6b2b73a32b960711b606082015260800190565b7f416363657373436f6e74726f6c3a206163636f756e7420000000000000000000815260008351612561816017850160208801611f6d565b7001034b99036b4b9b9b4b733903937b6329607d1b6017918401918201528351612592816028840160208801611f6d565b01602801949350505050565b6001600160a01b03858116825284166020820152604081018390526080606082018190526000906125d190830184611f91565b9695505050505050565b6000602082840312156125ed57600080fd5b8151610e3f81611f3a565b80820281158282048414176106fa576106fa612358565b60008161261e5761261e612358565b506000190190565b634e487b7160e01b600052603160045260246000fdfea2646970667358221220d46e469bd5b82996a4f9f71710b811111743d2baed2e53abe8731bab3826c18764736f6c63430008180033",
    "linkReferences": {}
  },
  "methodIdentifiers": {
    "DEFAULT_ADMIN_ROLE()": "a217fddf",
    "MAINTENANCE_ROLE()": "1dec5e07",
    "approve(address,uint256)": "095ea7b3",
    "attributes(uint256)": "d05dcc6a",
    "balanceOf(address)": "70a08231",
    "decodeAttributes(uint256)": "46494813",
    "encodeAttributes(uint256,uint256,uint256,uint256)": "bda22250",
    "getApproved(uint256)": "081812fc",
    "getRoleAdmin(bytes32)": "248a9ca3",
    "grantRole(bytes32,address)": "2f2ff15d",
    "hasRole(bytes32,address)": "91d14854",
    "isApprovedForAll(address,address)": "e985e9c5",
    "maintenance(uint256,uint256)": "0863e9fa",
    "merkleRoot()": "2eb4a7ab",
    "mint(uint256,uint256,bytes32[])": "e6d37b88",
    "mintPrice()": "6817c76c",
    "name()": "06fdde03",
    "ownerOf(uint256)": "6352211e",
    "renounceRole(bytes32,address)": "36568abe",
    "revokeRole(bytes32,address)": "d547741f",
    "safeTransferFrom(address,address,uint256)": "42842e0e",
    "safeTransferFrom(address,address,uint256,bytes)": "b88d4fde",
    "setApprovalForAll(address,bool)": "a22cb465",
    "supportsInterface(bytes4)": "01ffc9a7",
    "symbol()": "95d89b41",
    "tokenByIndex(uint256)": "4f6ccce7",
    "tokenMinted(uint256)": "ff4078d3",
    "tokenOfOwnerByIndex(address,uint256)": "2f745c59",
    "tokenURI(uint256)": "c87b56dd",
    "totalSupply()": "18160ddd",
    "transferFrom(address,address,uint256)": "23b872dd",
    "updateMerkleRoot(bytes32)": "4783f0ef",
    "updateMintPrice(uint256)": "00728e46",
    "verifier()": "2b7ac3f3"
  },
  "id": 42
}