{"abi":[{"type":"constructor","inputs":[{"name":"_nftAddress","type":"address","internalType":"address"},{"name":"_rng","type":"address","internalType":"address"}],"stateMutability":"nonpayable"},{"type":"function","name":"cosmoShips","inputs":[],"outputs":[{"name":"","type":"address","internalType":"contract CosmoShips"}],"stateMutability":"view"},{"type":"function","name":"createTeam","inputs":[{"name":"nftIds","type":"uint256[]","internalType":"uint256[]"},{"name":"teamName","type":"string","internalType":"string"}],"outputs":[{"name":"","type":"uint256","internalType":"uint256"}],"stateMutability":"nonpayable"},{"type":"function","name":"currentLeagueId","inputs":[],"outputs":[{"name":"","type":"uint256","internalType":"uint256"}],"stateMutability":"view"},{"type":"function","name":"determineMatchOutcome","inputs":[{"name":"leagueId","type":"uint256","internalType":"uint256"},{"name":"gameId","type":"uint256","internalType":"uint256"}],"outputs":[],"stateMutability":"nonpayable"},{"type":"function","name":"endBettingAndStartGame","inputs":[{"name":"leagueId","type":"uint256","internalType":"uint256"}],"outputs":[],"stateMutability":"nonpayable"},{"type":"function","name":"endEnrollmentAndStartBetting","inputs":[{"name":"leagueId","type":"uint256","internalType":"uint256"}],"outputs":[],"stateMutability":"nonpayable"},{"type":"function","name":"enrollToLeague","inputs":[{"name":"teamId","type":"uint256","internalType":"uint256"}],"outputs":[],"stateMutability":"nonpayable"},{"type":"function","name":"getLeague","inputs":[{"name":"leagueId","type":"uint256","internalType":"uint256"}],"outputs":[{"name":"id","type":"uint256","internalType":"uint256"},{"name":"state","type":"uint8","internalType":"enum GameLeague.LeagueState"},{"name":"prizePool","type":"uint256","internalType":"uint256"},{"name":"enrolledTeams","type":"uint256[]","internalType":"uint256[]"},{"name":"totalBetsInLeague","type":"uint256","internalType":"uint256"}],"stateMutability":"view"},{"type":"function","name":"getTeam","inputs":[{"name":"teamId","type":"uint256","internalType":"uint256"}],"outputs":[{"name":"","type":"string","internalType":"string"},{"name":"","type":"uint256[]","internalType":"uint256[]"},{"name":"","type":"address","internalType":"address"}],"stateMutability":"view"},{"type":"function","name":"getUserBets","inputs":[{"name":"leagueId","type":"uint256","internalType":"uint256"},{"name":"user","type":"address","internalType":"address"}],"outputs":[{"name":"teamIds","type":"uint256[]","internalType":"uint256[]"},{"name":"betAmounts","type":"uint256[]","internalType":"uint256[]"}],"stateMutability":"view"},{"type":"function","name":"initializeLeague","inputs":[],"outputs":[],"stateMutability":"payable"},{"type":"function","name":"isTeamEnrolled","inputs":[{"name":"teamId","type":"uint256","internalType":"uint256"},{"name":"leagueId","type":"uint256","internalType":"uint256"}],"outputs":[{"name":"","type":"bool","internalType":"bool"}],"stateMutability":"view"},{"type":"function","name":"leagues","inputs":[{"name":"","type":"uint256","internalType":"uint256"}],"outputs":[{"name":"id","type":"uint256","internalType":"uint256"},{"name":"state","type":"uint8","internalType":"enum GameLeague.LeagueState"},{"name":"prizePool","type":"uint256","internalType":"uint256"},{"name":"totalBetsInLeague","type":"uint256","internalType":"uint256"},{"name":"gameIdCounter","type":"tuple","internalType":"struct Counters.Counter","components":[{"name":"_value","type":"uint256","internalType":"uint256"}]}],"stateMutability":"view"},{"type":"function","name":"onERC721Received","inputs":[{"name":"","type":"address","internalType":"address"},{"name":"","type":"address","internalType":"address"},{"name":"","type":"uint256","internalType":"uint256"},{"name":"","type":"bytes","internalType":"bytes"}],"outputs":[{"name":"","type":"bytes4","internalType":"bytes4"}],"stateMutability":"nonpayable"},{"type":"function","name":"placeBet","inputs":[{"name":"leagueId","type":"uint256","internalType":"uint256"},{"name":"teamId","type":"uint256","internalType":"uint256"},{"name":"amount","type":"uint256","internalType":"uint256"}],"outputs":[],"stateMutability":"nonpayable"},{"type":"function","name":"rng","inputs":[],"outputs":[{"name":"","type":"address","internalType":"contract IRandomNumberGenerator"}],"stateMutability":"view"},{"type":"function","name":"runGameLeague","inputs":[],"outputs":[],"stateMutability":"nonpayable"},{"type":"function","name":"setupMatches","inputs":[{"name":"seed","type":"uint256","internalType":"uint256"}],"outputs":[],"stateMutability":"nonpayable"},{"type":"function","name":"stakes","inputs":[{"name":"","type":"address","internalType":"address"}],"outputs":[{"name":"","type":"uint256","internalType":"uint256"}],"stateMutability":"view"},{"type":"function","name":"teams","inputs":[{"name":"","type":"uint256","internalType":"uint256"}],"outputs":[{"name":"owner","type":"address","internalType":"address"},{"name":"name","type":"string","internalType":"string"}],"stateMutability":"view"},{"type":"event","name":"GamesSetup","inputs":[{"name":"leagueId","type":"uint256","indexed":true,"internalType":"uint256"},{"name":"gameIds","type":"uint256[]","indexed":false,"internalType":"uint256[]"},{"name":"team1s","type":"uint256[]","indexed":false,"internalType":"uint256[]"},{"name":"team2s","type":"uint256[]","indexed":false,"internalType":"uint256[]"},{"name":"gameTypes","type":"uint8[]","indexed":false,"internalType":"enum GameLeague.GameType[]"}],"anonymous":false},{"type":"event","name":"Leaderboard","inputs":[{"name":"leagueId","type":"uint256","indexed":true,"internalType":"uint256"},{"name":"leaderboard","type":"uint256[]","indexed":false,"internalType":"uint256[]"}],"anonymous":false}],"bytecode":{"object":"0x60806040523480156200001157600080fd5b50604051620028d5380380620028d5833981016040819052620000349162000083565b600680546001600160a01b039384166001600160a01b03199182161790915560078054929093169116179055620000bb565b80516001600160a01b03811681146200007e57600080fd5b919050565b600080604083850312156200009757600080fd5b620000a28362000066565b9150620000b26020840162000066565b90509250929050565b61280a80620000cb6000396000f3fe60806040526004361061011e5760003560e01c80636fb984ef116100a0578063c648fefe11610064578063c648fefe14610376578063c84054cf146103e0578063d605787b14610400578063e71c969714610420578063fa744dd31461044057600080fd5b80636fb984ef146102ee5780637df0b5db146102f6578063849851e114610316578063885fb86514610336578063b62f12421461035657600080fd5b806339bb1e5c116100e757806339bb1e5c146102115780633ed2b77a1461024157806345516aaa1461026f5780634678f27b146102a0578063496963b1146102d857600080fd5b80628e0f1b14610123578063150b7a021461015b57806316934fc41461019f578063236aa56b146101da578063339c9f28146101fc575b600080fd5b34801561012f57600080fd5b5061014361013e366004611fb7565b61046e565b60405161015293929190612052565b60405180910390f35b34801561016757600080fd5b506101866101763660046120be565b630a85bd0160e11b949350505050565b6040516001600160e01b03199091168152602001610152565b3480156101ab57600080fd5b506101cc6101ba36600461219e565b60056020526000908152604090205481565b604051908152602001610152565b3480156101e657600080fd5b506101fa6101f5366004611fb7565b610588565b005b34801561020857600080fd5b506101fa610be8565b34801561021d57600080fd5b5061023161022c3660046121c2565b610cd8565b6040519015158152602001610152565b34801561024d57600080fd5b5061026161025c366004611fb7565b610cff565b6040516101529291906121e4565b34801561027b57600080fd5b5061028f61028a366004611fb7565b610db1565b60405161015295949392919061223a565b3480156102ac57600080fd5b506006546102c0906001600160a01b031681565b6040516001600160a01b039091168152602001610152565b3480156102e457600080fd5b506101cc60025481565b6101fa610e47565b34801561030257600080fd5b506101cc610311366004612278565b610f0a565b34801561032257600080fd5b506101fa6103313660046121c2565b611173565b34801561034257600080fd5b506101fa610351366004611fb7565b611308565b34801561036257600080fd5b506101fa610371366004611fb7565b61141e565b34801561038257600080fd5b506103cf610391366004611fb7565b600360209081526000918252604091829020805460018201546002830154600a8401548651958601909652600b909301548452909360ff9091169285565b60405161015295949392919061233d565b3480156103ec57600080fd5b506101fa6103fb366004611fb7565b6114b4565b34801561040c57600080fd5b506007546102c0906001600160a01b031681565b34801561042c57600080fd5b506101fa61043b36600461236e565b611543565b34801561044c57600080fd5b5061046061045b36600461239a565b6116dd565b6040516101529291906123ca565b600081815260046020526040812060018101546002820180546060948594909390929183916001600160a01b03169083906104a8906123f8565b80601f01602080910402602001604051908101604052809291908181526020018280546104d4906123f8565b80156105215780601f106104f657610100808354040283529160200191610521565b820191906000526020600020905b81548152906001019060200180831161050457829003601f168201915b505050505092508180548060200260200160405190810160405280929190818152602001828054801561057357602002820191906000526020600020905b81548152602001906001019080831161055f575b50505050509150935093509350509193909250565b600254600081815260036020819052604090912090600182015460ff1660068111156105b6576105b6612210565b146106235760405162461bcd60e51b815260206004820152603260248201527f4d6174636865732063616e206f6e6c792062652073657420757020696e20746860448201527132902132ba399027b832b71039ba30ba329760711b60648201526084015b60405180910390fd5b600381015460028110156106885760405162461bcd60e51b815260206004820152602660248201527f4174206c656173742074776f207465616d73206e656564656420666f72206d616044820152653a31b432b99760d11b606482015260840161061a565b600061069560028361245e565b67ffffffffffffffff8111156106ad576106ad6120a8565b6040519080825280602002602001820160405280156106d6578160200160208202803683370190505b50905060006106e660028461245e565b67ffffffffffffffff8111156106fe576106fe6120a8565b604051908082528060200260200182016040528015610727578160200160208202803683370190505b509050600061073760028561245e565b67ffffffffffffffff81111561074f5761074f6120a8565b604051908082528060200260200182016040528015610778578160200160208202803683370190505b509050600061078860028661245e565b67ffffffffffffffff8111156107a0576107a06120a8565b6040519080825280602002602001820160405280156107c9578160200160208202803683370190505b50905060005b858110156109065760006107e38288612472565b6007546001600160a01b031663b37217a46107fe858e612485565b6040518263ffffffff1660e01b815260040161081c91815260200190565b602060405180830381865afa158015610839573d6000803e3d6000fd5b505050506040513d601f19601f8201168201806040525081019061085d9190612498565b61086791906124b1565b6108719083612485565b9050600088600301828154811061088a5761088a6124c5565b906000526020600020015490508860030183815481106108ac576108ac6124c5565b90600052602060002001548960030183815481106108cc576108cc6124c5565b9060005260206000200181905550808960030184815481106108f0576108f06124c5565b60009182526020909120015550506001016107cf565b5060005b61091560028761245e565b811015610b9f5760006003880161092d8360026124db565b8154811061093d5761093d6124c5565b60009182526020822001549150600389016109598460026124db565b610964906001612485565b81548110610974576109746124c5565b9060005260206000200154905060006002600760009054906101000a90046001600160a01b03166001600160a01b031663b37217a4868f6109b59190612485565b6040518263ffffffff1660e01b81526004016109d391815260200190565b602060405180830381865afa1580156109f0573d6000803e3d6000fd5b505050506040513d601f19601f82011682018060405250810190610a149190612498565b610a1e91906124b1565b15610a2a576001610a2d565b60005b90506000610a3c8b600b015490565b90506040518060a0016040528082815260200185815260200184815260200160008152602001836001811115610a7457610a74612210565b8152508b60050160008381526020019081526020016000206000820151816000015560208201518160010155604082015181600201556060820151816003015560808201518160040160006101000a81548160ff02191690836001811115610ade57610ade612210565b02179055505050600b8b018054600101905580898681518110610b0357610b036124c5565b60200260200101818152505083888681518110610b2257610b226124c5565b60200260200101818152505082878681518110610b4157610b416124c5565b60200260200101818152505081868681518110610b6057610b606124c5565b60200260200101906001811115610b7957610b79612210565b90816001811115610b8c57610b8c612210565b905250506001909301925061090a915050565b50867f555f2bee292e64c33376a230298bd6e5e9502ee97cd80ce83a2e3dad3883508985858585604051610bd694939291906124f2565b60405180910390a25050505050505050565b60025460008181526003602052604090206004600182015460ff166006811115610c1457610c14612210565b14610c615760405162461bcd60e51b815260206004820152601e60248201527f4c6561677565206973206e6f7420696e2072756e6e696e672073746174650000604482015260640161061a565b600381015460041015610cbc57610c7c6101f582600b015490565b6000600b82015560005b600b820154811015610ca457610c9c8382611173565b600101610c86565b50610cae8261190e565b610cb7826119cc565b610c61565b6001808201805460069260ff1990911690835b02179055505050565b600081815260036020908152604080832085845260040190915290205460ff165b92915050565b600460205260009081526040902060018101546002820180546001600160a01b039092169291610d2e906123f8565b80601f0160208091040260200160405190810160405280929190818152602001828054610d5a906123f8565b8015610da75780601f10610d7c57610100808354040283529160200191610da7565b820191906000526020600020905b815481529060010190602001808311610d8a57829003601f168201915b5050505050905082565b6000818152600360208181526040808420805460018201546002830154600a8401549684018054865181890281018901909752808752899889986060988a98979660ff169594939091849190830182828015610e2c57602002820191906000526020600020905b815481526020019060010190808311610e18575b50505050509150955095509550955095505091939590929450565b600660025460009081526003602052604090206001015460ff166006811115610e7257610e72612210565b1480610e7e5750600254155b610eca5760405162461bcd60e51b815260206004820152601d60248201527f50726576696f7573206c6561677565206e6f7420636f6e636c75646564000000604482015260640161061a565b60028054906000610eda83612583565b90915550506002805460008181526003602052604090209081556001808201805460ff1916909117905534910155565b600060038414610f5c5760405162461bcd60e51b815260206004820152601d60248201527f4d757374207374616b652065786163746c79207468726565204e465473000000604482015260640161061a565b6000610f6760015490565b60008181526004602052604081209192505b868110156111365760065433906001600160a01b0316636352211e8a8a85818110610fa657610fa66124c5565b905060200201356040518263ffffffff1660e01b8152600401610fcb91815260200190565b602060405180830381865afa158015610fe8573d6000803e3d6000fd5b505050506040513d601f19601f8201168201806040525081019061100c919061259c565b6001600160a01b0316146110625760405162461bcd60e51b815260206004820152601860248201527f4e6f7420746865206f776e6572206f6620746865204e46540000000000000000604482015260640161061a565b6006546001600160a01b03166323b872dd33308b8b86818110611087576110876124c5565b6040516001600160e01b031960e088901b1681526001600160a01b03958616600482015294909316602485015250602090910201356044820152606401600060405180830381600087803b1580156110de57600080fd5b505af11580156110f2573d6000803e3d6000fd5b505050508160000188888381811061110c5761110c6124c5565b83546001808201865560009586526020958690209290950293909301359201919091555001610f79565b506001810180546001600160a01b031916331790556002810161115a85878361260a565b50611169600180546001019055565b5095945050505050565b600082815260036020908152604080832084845260058101909252822060018101546004820154929391926111ab919060ff16611bde565b600283015460048401549192506000916111c8919060ff16611bde565b9050600086866040516020016111e8929190918252602082015260400190565b60408051808303601f19018152908290528051602090910120600754632cdc85e960e21b8352600483018290529092506000916001600160a01b039091169063b37217a490602401602060405180830381865afa15801561124d573d6000803e3d6000fd5b505050506040513d601f19601f820116820180604052508101906112719190612498565b905060006112806064836124b1565b905083851080156112915750601481105b156112b2576112a16014836124b1565b6112ab9086612485565b94506112de565b84841080156112c15750601481105b156112de576112d16014836124b1565b6112db9085612485565b93505b8385116112ef5785600201546112f5565b85600101545b8660030181905550505050505050505050565b600160025460009081526003602052604090206001015460ff16600681111561133357611333612210565b146113775760405162461bcd60e51b8152602060048201526014602482015273115b9c9bdb1b1b595b9d081a5cc818db1bdcd95960621b604482015260640161061a565b60006113828261046e565b925050506001600160a01b03811633146113cf5760405162461bcd60e51b815260206004820152600e60248201526d2737ba103a32b0b69037bbb732b960911b604482015260640161061a565b506002805460009081526003602081815260408084209092018054600181810183559185528285200186905593548352818320948352600490940190935291909120805460ff19169091179055565b600081815260036020526040902060018082015460ff16600681111561144657611446612210565b1461149d5760405162461bcd60e51b815260206004820152602160248201527f4c6561677565206973206e6f7420696e20656e726f6c6c6d656e7420737461746044820152606560f81b606482015260840161061a565b6001808201805460039260ff199091169083610ccf565b600081815260036020819052604090912090600182015460ff1660068111156114df576114df612210565b1461152c5760405162461bcd60e51b815260206004820152601e60248201527f4c6561677565206973206e6f7420696e2062657474696e672073746174650000604482015260640161061a565b6001808201805460049260ff199091169083610ccf565b600083815260036020819052604090912090600182015460ff16600681111561156e5761156e612210565b146115b35760405162461bcd60e51b815260206004820152601560248201527442657474696e67206973206e6f742061637469766560581b604482015260640161061a565b600083815260048201602052604090205460ff1661161e5760405162461bcd60e51b815260206004820152602260248201527f5465616d20646f6573206e6f7420657869737420696e2074686973206c656167604482015261756560f01b606482015260840161061a565b33600090815260078201602090815260408083208684529091528120549003611666573360009081526008820160209081526040822080546001810182559083529120018390555b336000908152600782016020908152604080832086845290915281208054849290611692908490612485565b90915550506000838152600682016020526040812080548492906116b7908490612485565b925050819055508181600a0160008282546116d29190612485565b909155505050505050565b60008281526003602090815260408083206001600160a01b0385168452600881019092528083208054338552919093205460609384939290916117535760405162461bcd60e51b815260206004820152600e60248201526d139bc818995d1cc81c1b1858d95960921b604482015260640161061a565b8067ffffffffffffffff81111561176c5761176c6120a8565b604051908082528060200260200182016040528015611795578160200160208202803683370190505b5094508067ffffffffffffffff8111156117b1576117b16120a8565b6040519080825280602002602001820160405280156117da578160200160208202803683370190505b50935060005b818110156119035760008382815481106117fc576117fc6124c5565b60009182526020808320909101546001600160a01b038b16835260078801825260408084208285529092529120549091501561189b5780878381518110611845576118456124c5565b6020908102919091018101919091526001600160a01b038916600090815260078701825260408082208483529092522054865187908490811061188a5761188a6124c5565b6020026020010181815250506118fa565b60405162461bcd60e51b815260206004820152602e60248201527f426574206461746120636f72727570746564206f7220756e696e697469616c6960448201526d3d32b2103132ba103337bab7321760911b606482015260840161061a565b506001016117e0565b505050509250929050565b600081815260036020819052604082209081018054919261193b91906119356001856126ca565b86611d6c565b606060005b8281101561198d5783600301818154811061195d5761195d6124c5565b906000526020600020015482828151811061197a5761197a6124c5565b6020908102919091010152600101611940565b50837f4bd17bf685bdf35f38698baf9b7e82e801939a5853f089781f2a66cb9bad0468826040516119be91906126f1565b60405180910390a250505050565b6000818152600360208190526040909120908101546119ec6002826124b1565b15611b1f57600060038301611a02600184612472565b81548110611a1257611a126124c5565b9060005260206000200154905060005b600082815260046020526040902054811015611af7576006546000838152600460205260409020600181015481546001600160a01b03938416936323b872dd9330939091169186908110611a7857611a786124c5565b6000918252602090912001546040516001600160e01b031960e086901b1681526001600160a01b0393841660048201529290911660248301526044820152606401600060405180830381600087803b158015611ad357600080fd5b505af1158015611ae7573d6000803e3d6000fd5b505060019092019150611a229050565b5060008181526004840160205260409020805460ff1916905581611b1a81612704565b925050505b6000611b2c60028361245e565b67ffffffffffffffff811115611b4457611b446120a8565b604051908082528060200260200182016040528015611b6d578160200160208202803683370190505b50905060005b8151811015611bc157836003018181548110611b9157611b916124c5565b9060005260206000200154828281518110611bae57611bae6124c5565b6020908102919091010152600101611b73565b508051611bd79060038501906020840190611f57565b5050505050565b600082815260046020526040812081805b8254811015611d635760065483546000916001600160a01b03169063d05dcc6a90869085908110611c2257611c226124c5565b90600052602060002001546040518263ffffffff1660e01b8152600401611c4b91815260200190565b602060405180830381865afa158015611c68573d6000803e3d6000fd5b505050506040513d601f19601f82011682018060405250810190611c8c9190612498565b600654604051634649481360e01b815260048101839052919250600091829182916001600160a01b0390911690634649481390602401608060405180830381865afa158015611cdf573d6000803e3d6000fd5b505050506040513d601f19601f82011682018060405250810190611d03919061271b565b9195509350915060019050896001811115611d2057611d20612210565b03611d3657611d2f8184612485565b9550611d53565b6000896001811115611d4a57611d4a612210565b03611d53578195505b505060019092019150611bef9050565b50949350505050565b60008181526003602052604090208383808203611d8b57505050611f51565b60006006840181896002611d9f8b8b6126ca565b611da99190612751565b611db3908b61277f565b81548110611dc357611dc36124c5565b906000526020600020015481526020019081526020016000205490505b818313611f24575b808460060160008a8681548110611e0157611e016124c5565b90600052602060002001548152602001908152602001600020541015611e335782611e2b816127a7565b935050611de8565b836006016000898481548110611e4b57611e4b6124c5565b9060005260206000200154815260200190815260200160002054811015611e7e5781611e76816127bf565b925050611e33565b818313611f1f57878281548110611e9757611e976124c5565b9060005260206000200154888481548110611eb457611eb46124c5565b9060005260206000200154898581548110611ed157611ed16124c5565b9060005260206000200160008b8681548110611eef57611eef6124c5565b600091825260209091200192909255919091555082611f0d816127a7565b9350508180611f1b906127bf565b9250505b611de0565b81871215611f3857611f3888888488611d6c565b85831215611f4c57611f4c88848888611d6c565b505050505b50505050565b828054828255906000526020600020908101928215611f92579160200282015b82811115611f92578251825591602001919060010190611f77565b50611f9e929150611fa2565b5090565b5b80821115611f9e5760008155600101611fa3565b600060208284031215611fc957600080fd5b5035919050565b6000815180845260005b81811015611ff657602081850181015186830182015201611fda565b506000602082860101526020601f19601f83011685010191505092915050565b60008151808452602080850194506020840160005b838110156120475781518752958201959082019060010161202b565b509495945050505050565b6060815260006120656060830186611fd0565b82810360208401526120778186612016565b91505060018060a01b0383166040830152949350505050565b6001600160a01b03811681146120a557600080fd5b50565b634e487b7160e01b600052604160045260246000fd5b600080600080608085870312156120d457600080fd5b84356120df81612090565b935060208501356120ef81612090565b925060408501359150606085013567ffffffffffffffff8082111561211357600080fd5b818701915087601f83011261212757600080fd5b813581811115612139576121396120a8565b604051601f8201601f19908116603f01168101908382118183101715612161576121616120a8565b816040528281528a602084870101111561217a57600080fd5b82602086016020830137600060208483010152809550505050505092959194509250565b6000602082840312156121b057600080fd5b81356121bb81612090565b9392505050565b600080604083850312156121d557600080fd5b50508035926020909101359150565b6001600160a01b038316815260406020820181905260009061220890830184611fd0565b949350505050565b634e487b7160e01b600052602160045260246000fd5b6007811061223657612236612210565b9052565b85815261224a6020820186612226565b83604082015260a06060820152600061226660a0830185612016565b90508260808301529695505050505050565b6000806000806040858703121561228e57600080fd5b843567ffffffffffffffff808211156122a657600080fd5b818701915087601f8301126122ba57600080fd5b8135818111156122c957600080fd5b8860208260051b85010111156122de57600080fd5b6020928301965094509086013590808211156122f957600080fd5b818701915087601f83011261230d57600080fd5b81358181111561231c57600080fd5b88602082850101111561232e57600080fd5b95989497505060200194505050565b85815260a081016123516020830187612226565b846040830152836060830152825160808301529695505050505050565b60008060006060848603121561238357600080fd5b505081359360208301359350604090920135919050565b600080604083850312156123ad57600080fd5b8235915060208301356123bf81612090565b809150509250929050565b6040815260006123dd6040830185612016565b82810360208401526123ef8185612016565b95945050505050565b600181811c9082168061240c57607f821691505b60208210810361242c57634e487b7160e01b600052602260045260246000fd5b50919050565b634e487b7160e01b600052601260045260246000fd5b634e487b7160e01b600052601160045260246000fd5b60008261246d5761246d612432565b500490565b81810381811115610cf957610cf9612448565b80820180821115610cf957610cf9612448565b6000602082840312156124aa57600080fd5b5051919050565b6000826124c0576124c0612432565b500690565b634e487b7160e01b600052603260045260246000fd5b8082028115828204841417610cf957610cf9612448565b6080815260006125056080830187612016565b602083820360208501526125198288612016565b9150838203604085015261252d8287612016565b84810360608601528551808252602080880194509091019060005b818110156125745784516002811061256257612562612210565b83529383019391830191600101612548565b50909998505050505050505050565b60006001820161259557612595612448565b5060010190565b6000602082840312156125ae57600080fd5b81516121bb81612090565b601f821115612605576000816000526020600020601f850160051c810160208610156125e25750805b601f850160051c820191505b81811015612601578281556001016125ee565b5050505b505050565b67ffffffffffffffff831115612622576126226120a8565b6126368361263083546123f8565b836125b9565b6000601f84116001811461266a57600085156126525750838201355b600019600387901b1c1916600186901b178355611bd7565b600083815260209020601f19861690835b8281101561269b578685013582556020948501946001909201910161267b565b50868210156126b85760001960f88860031b161c19848701351681555b505060018560011b0183555050505050565b81810360008312801583831316838312821617156126ea576126ea612448565b5092915050565b6020815260006121bb6020830184612016565b60008161271357612713612448565b506000190190565b6000806000806080858703121561273157600080fd5b505082516020840151604085015160609095015191969095509092509050565b60008261276057612760612432565b600160ff1b82146000198414161561277a5761277a612448565b500590565b808201828112600083128015821682158216171561279f5761279f612448565b505092915050565b60006001600160ff1b01820161259557612595612448565b6000600160ff1b82016127135761271361244856fea26469706673582212207d9a1c9a25b998ffb9065ec53541f5403564774c1e085c4174ff08e9bdd43d4664736f6c63430008180033","linkReferences":{}},"methodIdentifiers":{"cosmoShips()":"4678f27b","createTeam(uint256[],string)":"7df0b5db","currentLeagueId()":"496963b1","determineMatchOutcome(uint256,uint256)":"849851e1","endBettingAndStartGame(uint256)":"c84054cf","endEnrollmentAndStartBetting(uint256)":"b62f1242","enrollToLeague(uint256)":"885fb865","getLeague(uint256)":"45516aaa","getTeam(uint256)":"008e0f1b","getUserBets(uint256,address)":"fa744dd3","initializeLeague()":"6fb984ef","isTeamEnrolled(uint256,uint256)":"39bb1e5c","leagues(uint256)":"c648fefe","onERC721Received(address,address,uint256,bytes)":"150b7a02","placeBet(uint256,uint256,uint256)":"e71c9697","rng()":"d605787b","runGameLeague()":"339c9f28","setupMatches(uint256)":"236aa56b","stakes(address)":"16934fc4","teams(uint256)":"3ed2b77a"},"id":43}