{"abi":[{"type":"constructor","inputs":[{"name":"_nftAddress","type":"address","internalType":"address"},{"name":"_rng","type":"address","internalType":"address"}],"stateMutability":"nonpayable"},{"type":"function","name":"cosmoShips","inputs":[],"outputs":[{"name":"","type":"address","internalType":"contract CosmoShips"}],"stateMutability":"view"},{"type":"function","name":"createTeam","inputs":[{"name":"nftIds","type":"uint256[]","internalType":"uint256[]"},{"name":"teamName","type":"string","internalType":"string"}],"outputs":[{"name":"","type":"uint256","internalType":"uint256"}],"stateMutability":"nonpayable"},{"type":"function","name":"currentLeagueId","inputs":[],"outputs":[{"name":"","type":"uint256","internalType":"uint256"}],"stateMutability":"view"},{"type":"function","name":"determineMatchOutcome","inputs":[{"name":"leagueId","type":"uint256","internalType":"uint256"},{"name":"gameId","type":"uint256","internalType":"uint256"}],"outputs":[],"stateMutability":"nonpayable"},{"type":"function","name":"endBettingAndStartGame","inputs":[{"name":"leagueId","type":"uint256","internalType":"uint256"}],"outputs":[],"stateMutability":"nonpayable"},{"type":"function","name":"endEnrollmentAndStartBetting","inputs":[],"outputs":[],"stateMutability":"nonpayable"},{"type":"function","name":"enrollToLeague","inputs":[{"name":"teamId","type":"uint256","internalType":"uint256"}],"outputs":[],"stateMutability":"nonpayable"},{"type":"function","name":"getLeague","inputs":[{"name":"leagueId","type":"uint256","internalType":"uint256"}],"outputs":[{"name":"id","type":"uint256","internalType":"uint256"},{"name":"state","type":"uint8","internalType":"enum GameLeague.LeagueState"},{"name":"prizePool","type":"uint256","internalType":"uint256"},{"name":"enrolledTeams","type":"uint256[]","internalType":"uint256[]"},{"name":"totalBetsInLeague","type":"uint256","internalType":"uint256"}],"stateMutability":"view"},{"type":"function","name":"getTeam","inputs":[{"name":"teamId","type":"uint256","internalType":"uint256"}],"outputs":[{"name":"","type":"string","internalType":"string"},{"name":"","type":"uint256[]","internalType":"uint256[]"},{"name":"","type":"address","internalType":"address"}],"stateMutability":"view"},{"type":"function","name":"getTeamsByOwner","inputs":[{"name":"owner","type":"address","internalType":"address"}],"outputs":[{"name":"teamIds","type":"uint256[]","internalType":"uint256[]"},{"name":"teamNames","type":"string[]","internalType":"string[]"},{"name":"tokenIndexes","type":"uint256[][]","internalType":"uint256[][]"}],"stateMutability":"view"},{"type":"function","name":"getUserBets","inputs":[{"name":"leagueId","type":"uint256","internalType":"uint256"},{"name":"user","type":"address","internalType":"address"}],"outputs":[{"name":"teamIds","type":"uint256[]","internalType":"uint256[]"},{"name":"betAmounts","type":"uint256[]","internalType":"uint256[]"}],"stateMutability":"view"},{"type":"function","name":"initializeLeague","inputs":[],"outputs":[],"stateMutability":"payable"},{"type":"function","name":"isTeamEnrolled","inputs":[{"name":"teamId","type":"uint256","internalType":"uint256"},{"name":"leagueId","type":"uint256","internalType":"uint256"}],"outputs":[{"name":"","type":"bool","internalType":"bool"}],"stateMutability":"view"},{"type":"function","name":"leagues","inputs":[{"name":"","type":"uint256","internalType":"uint256"}],"outputs":[{"name":"id","type":"uint256","internalType":"uint256"},{"name":"state","type":"uint8","internalType":"enum GameLeague.LeagueState"},{"name":"prizePool","type":"uint256","internalType":"uint256"},{"name":"totalBetsInLeague","type":"uint256","internalType":"uint256"},{"name":"gameIdCounter","type":"tuple","internalType":"struct Counters.Counter","components":[{"name":"_value","type":"uint256","internalType":"uint256"}]}],"stateMutability":"view"},{"type":"function","name":"onERC721Received","inputs":[{"name":"","type":"address","internalType":"address"},{"name":"","type":"address","internalType":"address"},{"name":"","type":"uint256","internalType":"uint256"},{"name":"","type":"bytes","internalType":"bytes"}],"outputs":[{"name":"","type":"bytes4","internalType":"bytes4"}],"stateMutability":"nonpayable"},{"type":"function","name":"placeBet","inputs":[{"name":"leagueId","type":"uint256","internalType":"uint256"},{"name":"teamId","type":"uint256","internalType":"uint256"},{"name":"amount","type":"uint256","internalType":"uint256"}],"outputs":[],"stateMutability":"nonpayable"},{"type":"function","name":"rng","inputs":[],"outputs":[{"name":"","type":"address","internalType":"contract IRandomNumberGenerator"}],"stateMutability":"view"},{"type":"function","name":"runGameLeague","inputs":[],"outputs":[],"stateMutability":"nonpayable"},{"type":"function","name":"setupMatches","inputs":[{"name":"seed","type":"uint256","internalType":"uint256"}],"outputs":[],"stateMutability":"nonpayable"},{"type":"function","name":"stakes","inputs":[{"name":"","type":"address","internalType":"address"}],"outputs":[{"name":"","type":"uint256","internalType":"uint256"}],"stateMutability":"view"},{"type":"function","name":"teams","inputs":[{"name":"","type":"uint256","internalType":"uint256"}],"outputs":[{"name":"owner","type":"address","internalType":"address"},{"name":"name","type":"string","internalType":"string"}],"stateMutability":"view"},{"type":"event","name":"GamesSetup","inputs":[{"name":"leagueId","type":"uint256","indexed":true,"internalType":"uint256"},{"name":"gameIds","type":"uint256[]","indexed":false,"internalType":"uint256[]"},{"name":"team1s","type":"uint256[]","indexed":false,"internalType":"uint256[]"},{"name":"team2s","type":"uint256[]","indexed":false,"internalType":"uint256[]"},{"name":"gameTypes","type":"uint8[]","indexed":false,"internalType":"enum GameLeague.GameType[]"}],"anonymous":false},{"type":"event","name":"Leaderboard","inputs":[{"name":"leagueId","type":"uint256","indexed":true,"internalType":"uint256"},{"name":"leaderboard","type":"uint256[]","indexed":false,"internalType":"uint256[]"}],"anonymous":false}],"bytecode":{"object":"0x60806040523480156200001157600080fd5b5060405162002e0b38038062002e0b833981016040819052620000349162000083565b600680546001600160a01b039384166001600160a01b03199182161790915560078054929093169116179055620000bb565b80516001600160a01b03811681146200007e57600080fd5b919050565b600080604083850312156200009757600080fd5b620000a28362000066565b9150620000b26020840162000066565b90509250929050565b612d4080620000cb6000396000f3fe6080604052600436106101295760003560e01c8063496963b1116100ab578063ac8cb21d1161006f578063ac8cb21d14610390578063c648fefe146103a5578063c84054cf1461040f578063d605787b1461042f578063e71c96971461044f578063fa744dd31461046f57600080fd5b8063496963b1146103125780636fb984ef146103285780637df0b5db14610330578063849851e114610350578063885fb8651461037057600080fd5b8063339c9f28116100f2578063339c9f281461023657806339bb1e5c1461024b5780633ed2b77a1461027b57806345516aaa146102a95780634678f27b146102da57600080fd5b80628e0f1b1461012e57806302e95e9c14610166578063150b7a021461019557806316934fc4146101d9578063236aa56b14610214575b600080fd5b34801561013a57600080fd5b5061014e610149366004612428565b61049d565b60405161015d939291906124c3565b60405180910390f35b34801561017257600080fd5b50610186610181366004612519565b6105b7565b60405161015d9392919061253d565b3480156101a157600080fd5b506101c06101b036600461261b565b630a85bd0160e11b949350505050565b6040516001600160e01b0319909116815260200161015d565b3480156101e557600080fd5b506102066101f4366004612519565b60056020526000908152604090205481565b60405190815260200161015d565b34801561022057600080fd5b5061023461022f366004612428565b6109fd565b005b34801561024257600080fd5b50610234611059565b34801561025757600080fd5b5061026b6102663660046126fa565b611149565b604051901515815260200161015d565b34801561028757600080fd5b5061029b610296366004612428565b611170565b60405161015d92919061271c565b3480156102b557600080fd5b506102c96102c4366004612428565b611222565b60405161015d959493929190612772565b3480156102e657600080fd5b506006546102fa906001600160a01b031681565b6040516001600160a01b03909116815260200161015d565b34801561031e57600080fd5b5061020660025481565b6102346112b8565b34801561033c57600080fd5b5061020661034b3660046127b0565b61137b565b34801561035c57600080fd5b5061023461036b3660046126fa565b6115e4565b34801561037c57600080fd5b5061023461038b366004612428565b611779565b34801561039c57600080fd5b5061023461188f565b3480156103b157600080fd5b506103fe6103c0366004612428565b600360209081526000918252604091829020805460018201546002830154600a8401548651958601909652600b909301548452909360ff9091169285565b60405161015d959493929190612874565b34801561041b57600080fd5b5061023461042a366004612428565b611928565b34801561043b57600080fd5b506007546102fa906001600160a01b031681565b34801561045b57600080fd5b5061023461046a3660046128a5565b6119b7565b34801561047b57600080fd5b5061048f61048a3660046128d1565b611b51565b60405161015d929190612901565b600081815260046020526040812060018101546002820180546060948594909390929183916001600160a01b03169083906104d79061292f565b80601f01602080910402602001604051908101604052809291908181526020018280546105039061292f565b80156105505780601f1061052557610100808354040283529160200191610550565b820191906000526020600020905b81548152906001019060200180831161053357829003601f168201915b50505050509250818054806020026020016040519081016040528092919081815260200182805480156105a257602002820191906000526020600020905b81548152602001906001019080831161058e575b50505050509150935093509350509193909250565b606080606060006105c760015490565b9050806001600160401b038111156105e1576105e1612605565b60405190808252806020026020018201604052801561060a578160200160208202803683370190505b509350806001600160401b0381111561062557610625612605565b60405190808252806020026020018201604052801561065857816020015b60608152602001906001900390816106435790505b509250806001600160401b0381111561067357610673612605565b6040519080825280602002602001820160405280156106a657816020015b60608152602001906001900390816106915790505b5091506000805b8281101561084d576000818152600460205260409020600101546001600160a01b0380891691160361084557808683815181106106ec576106ec612969565b6020026020010181815250506004600082815260200190815260200160002060020180546107199061292f565b80601f01602080910402602001604051908101604052809291908181526020018280546107459061292f565b80156107925780601f1061076757610100808354040283529160200191610792565b820191906000526020600020905b81548152906001019060200180831161077557829003601f168201915b50505050508583815181106107a9576107a9612969565b60200260200101819052506004600082815260200190815260200160002060000180548060200260200160405190810160405280929190818152602001828054801561081457602002820191906000526020600020905b815481526020019060010190808311610800575b505050505084838151811061082b5761082b612969565b6020026020010181905250818061084190612995565b9250505b6001016106ad565b506000816001600160401b0381111561086857610868612605565b604051908082528060200260200182016040528015610891578160200160208202803683370190505b5090506000826001600160401b038111156108ae576108ae612605565b6040519080825280602002602001820160405280156108e157816020015b60608152602001906001900390816108cc5790505b5090506000836001600160401b038111156108fe576108fe612605565b60405190808252806020026020018201604052801561093157816020015b606081526020019060019003908161091c5790505b50905060005b848110156109ed5788818151811061095157610951612969565b602002602001015184828151811061096b5761096b612969565b60200260200101818152505087818151811061098957610989612969565b60200260200101518382815181106109a3576109a3612969565b60200260200101819052508681815181106109c0576109c0612969565b60200260200101518282815181106109da576109da612969565b6020908102919091010152600101610937565b5091989097509095509350505050565b600254600081815260036020819052604090912090600182015460ff166006811115610a2b57610a2b612748565b14610a985760405162461bcd60e51b815260206004820152603260248201527f4d6174636865732063616e206f6e6c792062652073657420757020696e20746860448201527132902132ba399027b832b71039ba30ba329760711b60648201526084015b60405180910390fd5b60038101546002811015610afd5760405162461bcd60e51b815260206004820152602660248201527f4174206c656173742074776f207465616d73206e656564656420666f72206d616044820152653a31b432b99760d11b6064820152608401610a8f565b6000610b0a6002836129c4565b6001600160401b03811115610b2157610b21612605565b604051908082528060200260200182016040528015610b4a578160200160208202803683370190505b5090506000610b5a6002846129c4565b6001600160401b03811115610b7157610b71612605565b604051908082528060200260200182016040528015610b9a578160200160208202803683370190505b5090506000610baa6002856129c4565b6001600160401b03811115610bc157610bc1612605565b604051908082528060200260200182016040528015610bea578160200160208202803683370190505b5090506000610bfa6002866129c4565b6001600160401b03811115610c1157610c11612605565b604051908082528060200260200182016040528015610c3a578160200160208202803683370190505b50905060005b85811015610d77576000610c5482886129d8565b6007546001600160a01b031663b37217a4610c6f858e6129eb565b6040518263ffffffff1660e01b8152600401610c8d91815260200190565b602060405180830381865afa158015610caa573d6000803e3d6000fd5b505050506040513d601f19601f82011682018060405250810190610cce91906129fe565b610cd89190612a17565b610ce290836129eb565b90506000886003018281548110610cfb57610cfb612969565b90600052602060002001549050886003018381548110610d1d57610d1d612969565b9060005260206000200154896003018381548110610d3d57610d3d612969565b906000526020600020018190555080896003018481548110610d6157610d61612969565b6000918252602090912001555050600101610c40565b5060005b610d866002876129c4565b81101561101057600060038801610d9e836002612a2b565b81548110610dae57610dae612969565b6000918252602082200154915060038901610dca846002612a2b565b610dd59060016129eb565b81548110610de557610de5612969565b9060005260206000200154905060006002600760009054906101000a90046001600160a01b03166001600160a01b031663b37217a4868f610e2691906129eb565b6040518263ffffffff1660e01b8152600401610e4491815260200190565b602060405180830381865afa158015610e61573d6000803e3d6000fd5b505050506040513d601f19601f82011682018060405250810190610e8591906129fe565b610e8f9190612a17565b15610e9b576001610e9e565b60005b90506000610ead8b600b015490565b90506040518060a0016040528082815260200185815260200184815260200160008152602001836001811115610ee557610ee5612748565b8152508b60050160008381526020019081526020016000206000820151816000015560208201518160010155604082015181600201556060820151816003015560808201518160040160006101000a81548160ff02191690836001811115610f4f57610f4f612748565b02179055505050600b8b018054600101905580898681518110610f7457610f74612969565b60200260200101818152505083888681518110610f9357610f93612969565b60200260200101818152505082878681518110610fb257610fb2612969565b60200260200101818152505081868681518110610fd157610fd1612969565b60200260200101906001811115610fea57610fea612748565b90816001811115610ffd57610ffd612748565b9052505060019093019250610d7b915050565b50867f555f2bee292e64c33376a230298bd6e5e9502ee97cd80ce83a2e3dad38835089858585856040516110479493929190612a42565b60405180910390a25050505050505050565b60025460008181526003602052604090206004600182015460ff16600681111561108557611085612748565b146110d25760405162461bcd60e51b815260206004820152601e60248201527f4c6561677565206973206e6f7420696e2072756e6e696e6720737461746500006044820152606401610a8f565b60038101546004101561112d576110ed61022f82600b015490565b6000600b82015560005b600b8201548110156111155761110d83826115e4565b6001016110f7565b5061111f82611d80565b61112882611e3e565b6110d2565b6001808201805460069260ff1990911690835b02179055505050565b600081815260036020908152604080832085845260040190915290205460ff165b92915050565b600460205260009081526040902060018101546002820180546001600160a01b03909216929161119f9061292f565b80601f01602080910402602001604051908101604052809291908181526020018280546111cb9061292f565b80156112185780601f106111ed57610100808354040283529160200191611218565b820191906000526020600020905b8154815290600101906020018083116111fb57829003601f168201915b5050505050905082565b6000818152600360208181526040808420805460018201546002830154600a8401549684018054865181890281018901909752808752899889986060988a98979660ff16959493909184919083018282801561129d57602002820191906000526020600020905b815481526020019060010190808311611289575b50505050509150955095509550955095505091939590929450565b600660025460009081526003602052604090206001015460ff1660068111156112e3576112e3612748565b14806112ef5750600254155b61133b5760405162461bcd60e51b815260206004820152601d60248201527f50726576696f7573206c6561677565206e6f7420636f6e636c756465640000006044820152606401610a8f565b6002805490600061134b83612995565b90915550506002805460008181526003602052604090209081556001808201805460ff1916909117905534910155565b6000600384146113cd5760405162461bcd60e51b815260206004820152601d60248201527f4d757374207374616b652065786163746c79207468726565204e4654730000006044820152606401610a8f565b60006113d860015490565b60008181526004602052604081209192505b868110156115a75760065433906001600160a01b0316636352211e8a8a8581811061141757611417612969565b905060200201356040518263ffffffff1660e01b815260040161143c91815260200190565b602060405180830381865afa158015611459573d6000803e3d6000fd5b505050506040513d601f19601f8201168201806040525081019061147d9190612ad3565b6001600160a01b0316146114d35760405162461bcd60e51b815260206004820152601860248201527f4e6f7420746865206f776e6572206f6620746865204e465400000000000000006044820152606401610a8f565b6006546001600160a01b03166323b872dd33308b8b868181106114f8576114f8612969565b6040516001600160e01b031960e088901b1681526001600160a01b03958616600482015294909316602485015250602090910201356044820152606401600060405180830381600087803b15801561154f57600080fd5b505af1158015611563573d6000803e3d6000fd5b505050508160000188888381811061157d5761157d612969565b835460018082018655600095865260209586902092909502939093013592019190915550016113ea565b506001810180546001600160a01b03191633179055600281016115cb858783612b41565b506115da600180546001019055565b5095945050505050565b6000828152600360209081526040808320848452600581019092528220600181015460048201549293919261161c919060ff1661204f565b60028301546004840154919250600091611639919060ff1661204f565b905060008686604051602001611659929190918252602082015260400190565b60408051808303601f19018152908290528051602090910120600754632cdc85e960e21b8352600483018290529092506000916001600160a01b039091169063b37217a490602401602060405180830381865afa1580156116be573d6000803e3d6000fd5b505050506040513d601f19601f820116820180604052508101906116e291906129fe565b905060006116f1606483612a17565b905083851080156117025750601481105b1561172357611712601483612a17565b61171c90866129eb565b945061174f565b84841080156117325750601481105b1561174f57611742601483612a17565b61174c90856129eb565b93505b838511611760578560020154611766565b85600101545b8660030181905550505050505050505050565b600160025460009081526003602052604090206001015460ff1660068111156117a4576117a4612748565b146117e85760405162461bcd60e51b8152602060048201526014602482015273115b9c9bdb1b1b595b9d081a5cc818db1bdcd95960621b6044820152606401610a8f565b60006117f38261049d565b925050506001600160a01b03811633146118405760405162461bcd60e51b815260206004820152600e60248201526d2737ba103a32b0b69037bbb732b960911b6044820152606401610a8f565b506002805460009081526003602081815260408084209092018054600181810183559185528285200186905593548352818320948352600490940190935291909120805460ff19169091179055565b600254600081815260036020526040902060018082015460ff1660068111156118ba576118ba612748565b146119115760405162461bcd60e51b815260206004820152602160248201527f4c6561677565206973206e6f7420696e20656e726f6c6c6d656e7420737461746044820152606560f81b6064820152608401610a8f565b6001808201805460039260ff199091169083611140565b600081815260036020819052604090912090600182015460ff16600681111561195357611953612748565b146119a05760405162461bcd60e51b815260206004820152601e60248201527f4c6561677565206973206e6f7420696e2062657474696e6720737461746500006044820152606401610a8f565b6001808201805460049260ff199091169083611140565b600083815260036020819052604090912090600182015460ff1660068111156119e2576119e2612748565b14611a275760405162461bcd60e51b815260206004820152601560248201527442657474696e67206973206e6f742061637469766560581b6044820152606401610a8f565b600083815260048201602052604090205460ff16611a925760405162461bcd60e51b815260206004820152602260248201527f5465616d20646f6573206e6f7420657869737420696e2074686973206c656167604482015261756560f01b6064820152608401610a8f565b33600090815260078201602090815260408083208684529091528120549003611ada573360009081526008820160209081526040822080546001810182559083529120018390555b336000908152600782016020908152604080832086845290915281208054849290611b069084906129eb565b9091555050600083815260068201602052604081208054849290611b2b9084906129eb565b925050819055508181600a016000828254611b4691906129eb565b909155505050505050565b60008281526003602090815260408083206001600160a01b038516845260088101909252808320805433855291909320546060938493929091611bc75760405162461bcd60e51b815260206004820152600e60248201526d139bc818995d1cc81c1b1858d95960921b6044820152606401610a8f565b806001600160401b03811115611bdf57611bdf612605565b604051908082528060200260200182016040528015611c08578160200160208202803683370190505b509450806001600160401b03811115611c2357611c23612605565b604051908082528060200260200182016040528015611c4c578160200160208202803683370190505b50935060005b81811015611d75576000838281548110611c6e57611c6e612969565b60009182526020808320909101546001600160a01b038b168352600788018252604080842082855290925291205490915015611d0d5780878381518110611cb757611cb7612969565b6020908102919091018101919091526001600160a01b0389166000908152600787018252604080822084835290925220548651879084908110611cfc57611cfc612969565b602002602001018181525050611d6c565b60405162461bcd60e51b815260206004820152602e60248201527f426574206461746120636f72727570746564206f7220756e696e697469616c6960448201526d3d32b2103132ba103337bab7321760911b6064820152608401610a8f565b50600101611c52565b505050509250929050565b6000818152600360208190526040822090810180549192611dad9190611da7600185612c00565b866121dd565b606060005b82811015611dff57836003018181548110611dcf57611dcf612969565b9060005260206000200154828281518110611dec57611dec612969565b6020908102919091010152600101611db2565b50837f4bd17bf685bdf35f38698baf9b7e82e801939a5853f089781f2a66cb9bad046882604051611e309190612c27565b60405180910390a250505050565b600081815260036020819052604090912090810154611e5e600282612a17565b15611f9157600060038301611e746001846129d8565b81548110611e8457611e84612969565b9060005260206000200154905060005b600082815260046020526040902054811015611f69576006546000838152600460205260409020600181015481546001600160a01b03938416936323b872dd9330939091169186908110611eea57611eea612969565b6000918252602090912001546040516001600160e01b031960e086901b1681526001600160a01b0393841660048201529290911660248301526044820152606401600060405180830381600087803b158015611f4557600080fd5b505af1158015611f59573d6000803e3d6000fd5b505060019092019150611e949050565b5060008181526004840160205260409020805460ff1916905581611f8c81612c3a565b925050505b6000611f9e6002836129c4565b6001600160401b03811115611fb557611fb5612605565b604051908082528060200260200182016040528015611fde578160200160208202803683370190505b50905060005b81518110156120325783600301818154811061200257612002612969565b906000526020600020015482828151811061201f5761201f612969565b6020908102919091010152600101611fe4565b50805161204890600385019060208401906123c8565b5050505050565b600082815260046020526040812081805b82548110156121d45760065483546000916001600160a01b03169063d05dcc6a9086908590811061209357612093612969565b90600052602060002001546040518263ffffffff1660e01b81526004016120bc91815260200190565b602060405180830381865afa1580156120d9573d6000803e3d6000fd5b505050506040513d601f19601f820116820180604052508101906120fd91906129fe565b600654604051634649481360e01b815260048101839052919250600091829182916001600160a01b0390911690634649481390602401608060405180830381865afa158015612150573d6000803e3d6000fd5b505050506040513d601f19601f820116820180604052508101906121749190612c51565b919550935091506001905089600181111561219157612191612748565b036121a7576121a081846129eb565b95506121c4565b60008960018111156121bb576121bb612748565b036121c4578195505b5050600190920191506120609050565b50949350505050565b600081815260036020526040902083838082036121fc575050506123c2565b600060068401818960026122108b8b612c00565b61221a9190612c87565b612224908b612cb5565b8154811061223457612234612969565b906000526020600020015481526020019081526020016000205490505b818313612395575b808460060160008a868154811061227257612272612969565b906000526020600020015481526020019081526020016000205410156122a4578261229c81612cdd565b935050612259565b8360060160008984815481106122bc576122bc612969565b90600052602060002001548152602001908152602001600020548110156122ef57816122e781612cf5565b9250506122a4565b8183136123905787828154811061230857612308612969565b906000526020600020015488848154811061232557612325612969565b906000526020600020015489858154811061234257612342612969565b9060005260206000200160008b868154811061236057612360612969565b60009182526020909120019290925591909155508261237e81612cdd565b935050818061238c90612cf5565b9250505b612251565b818712156123a9576123a9888884886121dd565b858312156123bd576123bd888488886121dd565b505050505b50505050565b828054828255906000526020600020908101928215612403579160200282015b828111156124035782518255916020019190600101906123e8565b5061240f929150612413565b5090565b5b8082111561240f5760008155600101612414565b60006020828403121561243a57600080fd5b5035919050565b6000815180845260005b818110156124675760208185018101518683018201520161244b565b506000602082860101526020601f19601f83011685010191505092915050565b60008151808452602080850194506020840160005b838110156124b85781518752958201959082019060010161249c565b509495945050505050565b6060815260006124d66060830186612441565b82810360208401526124e88186612487565b91505060018060a01b0383166040830152949350505050565b6001600160a01b038116811461251657600080fd5b50565b60006020828403121561252b57600080fd5b813561253681612501565b9392505050565b6060815260006125506060830186612487565b6020838203818501528186518084528284019150828160051b85010183890160005b838110156125a057601f1987840301855261258e838351612441565b94860194925090850190600101612572565b50508681036040880152875180825284820195509250600583901b81018401915083880160005b848110156125f557601f198385030187526125e3848351612487565b968601969350908501906001016125c7565b50919a9950505050505050505050565b634e487b7160e01b600052604160045260246000fd5b6000806000806080858703121561263157600080fd5b843561263c81612501565b9350602085013561264c81612501565b92506040850135915060608501356001600160401b038082111561266f57600080fd5b818701915087601f83011261268357600080fd5b81358181111561269557612695612605565b604051601f8201601f19908116603f011681019083821181831017156126bd576126bd612605565b816040528281528a60208487010111156126d657600080fd5b82602086016020830137600060208483010152809550505050505092959194509250565b6000806040838503121561270d57600080fd5b50508035926020909101359150565b6001600160a01b038316815260406020820181905260009061274090830184612441565b949350505050565b634e487b7160e01b600052602160045260246000fd5b6007811061276e5761276e612748565b9052565b858152612782602082018661275e565b83604082015260a06060820152600061279e60a0830185612487565b90508260808301529695505050505050565b600080600080604085870312156127c657600080fd5b84356001600160401b03808211156127dd57600080fd5b818701915087601f8301126127f157600080fd5b81358181111561280057600080fd5b8860208260051b850101111561281557600080fd5b60209283019650945090860135908082111561283057600080fd5b818701915087601f83011261284457600080fd5b81358181111561285357600080fd5b88602082850101111561286557600080fd5b95989497505060200194505050565b85815260a08101612888602083018761275e565b846040830152836060830152825160808301529695505050505050565b6000806000606084860312156128ba57600080fd5b505081359360208301359350604090920135919050565b600080604083850312156128e457600080fd5b8235915060208301356128f681612501565b809150509250929050565b6040815260006129146040830185612487565b82810360208401526129268185612487565b95945050505050565b600181811c9082168061294357607f821691505b60208210810361296357634e487b7160e01b600052602260045260246000fd5b50919050565b634e487b7160e01b600052603260045260246000fd5b634e487b7160e01b600052601160045260246000fd5b6000600182016129a7576129a761297f565b5060010190565b634e487b7160e01b600052601260045260246000fd5b6000826129d3576129d36129ae565b500490565b8181038181111561116a5761116a61297f565b8082018082111561116a5761116a61297f565b600060208284031215612a1057600080fd5b5051919050565b600082612a2657612a266129ae565b500690565b808202811582820484141761116a5761116a61297f565b608081526000612a556080830187612487565b60208382036020850152612a698288612487565b91508382036040850152612a7d8287612487565b84810360608601528551808252602080880194509091019060005b81811015612ac457845160028110612ab257612ab2612748565b83529383019391830191600101612a98565b50909998505050505050505050565b600060208284031215612ae557600080fd5b815161253681612501565b601f821115612b3c576000816000526020600020601f850160051c81016020861015612b195750805b601f850160051c820191505b81811015612b3857828155600101612b25565b5050505b505050565b6001600160401b03831115612b5857612b58612605565b612b6c83612b66835461292f565b83612af0565b6000601f841160018114612ba05760008515612b885750838201355b600019600387901b1c1916600186901b178355612048565b600083815260209020601f19861690835b82811015612bd15786850135825560209485019460019092019101612bb1565b5086821015612bee5760001960f88860031b161c19848701351681555b505060018560011b0183555050505050565b8181036000831280158383131683831282161715612c2057612c2061297f565b5092915050565b6020815260006125366020830184612487565b600081612c4957612c4961297f565b506000190190565b60008060008060808587031215612c6757600080fd5b505082516020840151604085015160609095015191969095509092509050565b600082612c9657612c966129ae565b600160ff1b821460001984141615612cb057612cb061297f565b500590565b8082018281126000831280158216821582161715612cd557612cd561297f565b505092915050565b60006001600160ff1b0182016129a7576129a761297f565b6000600160ff1b8201612c4957612c4961297f56fea26469706673582212209cc6182c36f34ba23e3cf3754964f0d67440e19947675510417659757157d0e864736f6c63430008180033","linkReferences":{}},"methodIdentifiers":{"cosmoShips()":"4678f27b","createTeam(uint256[],string)":"7df0b5db","currentLeagueId()":"496963b1","determineMatchOutcome(uint256,uint256)":"849851e1","endBettingAndStartGame(uint256)":"c84054cf","endEnrollmentAndStartBetting()":"ac8cb21d","enrollToLeague(uint256)":"885fb865","getLeague(uint256)":"45516aaa","getTeam(uint256)":"008e0f1b","getTeamsByOwner(address)":"02e95e9c","getUserBets(uint256,address)":"fa744dd3","initializeLeague()":"6fb984ef","isTeamEnrolled(uint256,uint256)":"39bb1e5c","leagues(uint256)":"c648fefe","onERC721Received(address,address,uint256,bytes)":"150b7a02","placeBet(uint256,uint256,uint256)":"e71c9697","rng()":"d605787b","runGameLeague()":"339c9f28","setupMatches(uint256)":"236aa56b","stakes(address)":"16934fc4","teams(uint256)":"3ed2b77a"},"id":43}