{"abi":[{"type":"constructor","inputs":[{"name":"_nftAddress","type":"address","internalType":"address"},{"name":"_rng","type":"address","internalType":"address"}],"stateMutability":"nonpayable"},{"type":"function","name":"cosmoShips","inputs":[],"outputs":[{"name":"","type":"address","internalType":"contract CosmoShips"}],"stateMutability":"view"},{"type":"function","name":"createTeam","inputs":[{"name":"nftIds","type":"uint256[]","internalType":"uint256[]"},{"name":"teamName","type":"string","internalType":"string"}],"outputs":[{"name":"","type":"uint256","internalType":"uint256"}],"stateMutability":"nonpayable"},{"type":"function","name":"currentLeagueId","inputs":[],"outputs":[{"name":"","type":"uint256","internalType":"uint256"}],"stateMutability":"view"},{"type":"function","name":"determineMatchOutcome","inputs":[{"name":"leagueId","type":"uint256","internalType":"uint256"},{"name":"gameId","type":"uint256","internalType":"uint256"}],"outputs":[],"stateMutability":"nonpayable"},{"type":"function","name":"endBettingAndStartGame","inputs":[{"name":"leagueId","type":"uint256","internalType":"uint256"}],"outputs":[],"stateMutability":"nonpayable"},{"type":"function","name":"endEnrollmentAndStartBetting","inputs":[{"name":"leagueId","type":"uint256","internalType":"uint256"}],"outputs":[],"stateMutability":"nonpayable"},{"type":"function","name":"enrollToLeague","inputs":[{"name":"teamId","type":"uint256","internalType":"uint256"}],"outputs":[],"stateMutability":"nonpayable"},{"type":"function","name":"getLeague","inputs":[{"name":"leagueId","type":"uint256","internalType":"uint256"}],"outputs":[{"name":"id","type":"uint256","internalType":"uint256"},{"name":"state","type":"uint8","internalType":"enum GameLeague.LeagueState"},{"name":"prizePool","type":"uint256","internalType":"uint256"},{"name":"enrolledTeams","type":"uint256[]","internalType":"uint256[]"},{"name":"totalBetsInLeague","type":"uint256","internalType":"uint256"}],"stateMutability":"view"},{"type":"function","name":"getTeam","inputs":[{"name":"teamId","type":"uint256","internalType":"uint256"}],"outputs":[{"name":"","type":"string","internalType":"string"},{"name":"","type":"uint256[]","internalType":"uint256[]"},{"name":"","type":"address","internalType":"address"}],"stateMutability":"view"},{"type":"function","name":"getTeamsByOwner","inputs":[{"name":"owner","type":"address","internalType":"address"}],"outputs":[{"name":"teamIds","type":"uint256[]","internalType":"uint256[]"},{"name":"teamNames","type":"string[]","internalType":"string[]"},{"name":"tokenIndexes","type":"uint256[][]","internalType":"uint256[][]"}],"stateMutability":"view"},{"type":"function","name":"getUserBets","inputs":[{"name":"leagueId","type":"uint256","internalType":"uint256"},{"name":"user","type":"address","internalType":"address"}],"outputs":[{"name":"teamIds","type":"uint256[]","internalType":"uint256[]"},{"name":"betAmounts","type":"uint256[]","internalType":"uint256[]"}],"stateMutability":"view"},{"type":"function","name":"initializeLeague","inputs":[],"outputs":[],"stateMutability":"payable"},{"type":"function","name":"isTeamEnrolled","inputs":[{"name":"teamId","type":"uint256","internalType":"uint256"},{"name":"leagueId","type":"uint256","internalType":"uint256"}],"outputs":[{"name":"","type":"bool","internalType":"bool"}],"stateMutability":"view"},{"type":"function","name":"leagues","inputs":[{"name":"","type":"uint256","internalType":"uint256"}],"outputs":[{"name":"id","type":"uint256","internalType":"uint256"},{"name":"state","type":"uint8","internalType":"enum GameLeague.LeagueState"},{"name":"prizePool","type":"uint256","internalType":"uint256"},{"name":"totalBetsInLeague","type":"uint256","internalType":"uint256"},{"name":"gameIdCounter","type":"tuple","internalType":"struct Counters.Counter","components":[{"name":"_value","type":"uint256","internalType":"uint256"}]}],"stateMutability":"view"},{"type":"function","name":"onERC721Received","inputs":[{"name":"","type":"address","internalType":"address"},{"name":"","type":"address","internalType":"address"},{"name":"","type":"uint256","internalType":"uint256"},{"name":"","type":"bytes","internalType":"bytes"}],"outputs":[{"name":"","type":"bytes4","internalType":"bytes4"}],"stateMutability":"nonpayable"},{"type":"function","name":"placeBet","inputs":[{"name":"leagueId","type":"uint256","internalType":"uint256"},{"name":"teamId","type":"uint256","internalType":"uint256"},{"name":"amount","type":"uint256","internalType":"uint256"}],"outputs":[],"stateMutability":"nonpayable"},{"type":"function","name":"rng","inputs":[],"outputs":[{"name":"","type":"address","internalType":"contract IRandomNumberGenerator"}],"stateMutability":"view"},{"type":"function","name":"runGameLeague","inputs":[],"outputs":[],"stateMutability":"nonpayable"},{"type":"function","name":"setupMatches","inputs":[{"name":"seed","type":"uint256","internalType":"uint256"}],"outputs":[],"stateMutability":"nonpayable"},{"type":"function","name":"stakes","inputs":[{"name":"","type":"address","internalType":"address"}],"outputs":[{"name":"","type":"uint256","internalType":"uint256"}],"stateMutability":"view"},{"type":"function","name":"teams","inputs":[{"name":"","type":"uint256","internalType":"uint256"}],"outputs":[{"name":"owner","type":"address","internalType":"address"},{"name":"name","type":"string","internalType":"string"}],"stateMutability":"view"},{"type":"event","name":"GamesSetup","inputs":[{"name":"leagueId","type":"uint256","indexed":true,"internalType":"uint256"},{"name":"gameIds","type":"uint256[]","indexed":false,"internalType":"uint256[]"},{"name":"team1s","type":"uint256[]","indexed":false,"internalType":"uint256[]"},{"name":"team2s","type":"uint256[]","indexed":false,"internalType":"uint256[]"},{"name":"gameTypes","type":"uint8[]","indexed":false,"internalType":"enum GameLeague.GameType[]"}],"anonymous":false},{"type":"event","name":"Leaderboard","inputs":[{"name":"leagueId","type":"uint256","indexed":true,"internalType":"uint256"},{"name":"leaderboard","type":"uint256[]","indexed":false,"internalType":"uint256[]"}],"anonymous":false}],"bytecode":{"object":"0x60806040523480156200001157600080fd5b5060405162002e1338038062002e13833981016040819052620000349162000083565b600680546001600160a01b039384166001600160a01b03199182161790915560078054929093169116179055620000bb565b80516001600160a01b03811681146200007e57600080fd5b919050565b600080604083850312156200009757600080fd5b620000a28362000066565b9150620000b26020840162000066565b90509250929050565b612d4880620000cb6000396000f3fe6080604052600436106101295760003560e01c8063496963b1116100ab578063b62f12421161006f578063b62f124214610390578063c648fefe146103b0578063c84054cf1461041a578063d605787b1461043a578063e71c96971461045a578063fa744dd31461047a57600080fd5b8063496963b1146103125780636fb984ef146103285780637df0b5db14610330578063849851e114610350578063885fb8651461037057600080fd5b8063339c9f28116100f2578063339c9f281461023657806339bb1e5c1461024b5780633ed2b77a1461027b57806345516aaa146102a95780634678f27b146102da57600080fd5b80628e0f1b1461012e57806302e95e9c14610166578063150b7a021461019557806316934fc4146101d9578063236aa56b14610214575b600080fd5b34801561013a57600080fd5b5061014e610149366004612430565b6104a8565b60405161015d939291906124cb565b60405180910390f35b34801561017257600080fd5b50610186610181366004612521565b6105c2565b60405161015d93929190612545565b3480156101a157600080fd5b506101c06101b0366004612623565b630a85bd0160e11b949350505050565b6040516001600160e01b0319909116815260200161015d565b3480156101e557600080fd5b506102066101f4366004612521565b60056020526000908152604090205481565b60405190815260200161015d565b34801561022057600080fd5b5061023461022f366004612430565b610a08565b005b34801561024257600080fd5b50610234611064565b34801561025757600080fd5b5061026b610266366004612702565b611154565b604051901515815260200161015d565b34801561028757600080fd5b5061029b610296366004612430565b61117b565b60405161015d929190612724565b3480156102b557600080fd5b506102c96102c4366004612430565b61122d565b60405161015d95949392919061277a565b3480156102e657600080fd5b506006546102fa906001600160a01b031681565b6040516001600160a01b03909116815260200161015d565b34801561031e57600080fd5b5061020660025481565b6102346112c3565b34801561033c57600080fd5b5061020661034b3660046127b8565b611386565b34801561035c57600080fd5b5061023461036b366004612702565b6115ef565b34801561037c57600080fd5b5061023461038b366004612430565b611784565b34801561039c57600080fd5b506102346103ab366004612430565b61189a565b3480156103bc57600080fd5b506104096103cb366004612430565b600360209081526000918252604091829020805460018201546002830154600a8401548651958601909652600b909301548452909360ff9091169285565b60405161015d95949392919061287c565b34801561042657600080fd5b50610234610435366004612430565b611930565b34801561044657600080fd5b506007546102fa906001600160a01b031681565b34801561046657600080fd5b506102346104753660046128ad565b6119bf565b34801561048657600080fd5b5061049a6104953660046128d9565b611b59565b60405161015d929190612909565b600081815260046020526040812060018101546002820180546060948594909390929183916001600160a01b03169083906104e290612937565b80601f016020809104026020016040519081016040528092919081815260200182805461050e90612937565b801561055b5780601f106105305761010080835404028352916020019161055b565b820191906000526020600020905b81548152906001019060200180831161053e57829003601f168201915b50505050509250818054806020026020016040519081016040528092919081815260200182805480156105ad57602002820191906000526020600020905b815481526020019060010190808311610599575b50505050509150935093509350509193909250565b606080606060006105d260015490565b9050806001600160401b038111156105ec576105ec61260d565b604051908082528060200260200182016040528015610615578160200160208202803683370190505b509350806001600160401b038111156106305761063061260d565b60405190808252806020026020018201604052801561066357816020015b606081526020019060019003908161064e5790505b509250806001600160401b0381111561067e5761067e61260d565b6040519080825280602002602001820160405280156106b157816020015b606081526020019060019003908161069c5790505b5091506000805b82811015610858576000818152600460205260409020600101546001600160a01b0380891691160361085057808683815181106106f7576106f7612971565b60200260200101818152505060046000828152602001908152602001600020600201805461072490612937565b80601f016020809104026020016040519081016040528092919081815260200182805461075090612937565b801561079d5780601f106107725761010080835404028352916020019161079d565b820191906000526020600020905b81548152906001019060200180831161078057829003601f168201915b50505050508583815181106107b4576107b4612971565b60200260200101819052506004600082815260200190815260200160002060000180548060200260200160405190810160405280929190818152602001828054801561081f57602002820191906000526020600020905b81548152602001906001019080831161080b575b505050505084838151811061083657610836612971565b6020026020010181905250818061084c9061299d565b9250505b6001016106b8565b506000816001600160401b038111156108735761087361260d565b60405190808252806020026020018201604052801561089c578160200160208202803683370190505b5090506000826001600160401b038111156108b9576108b961260d565b6040519080825280602002602001820160405280156108ec57816020015b60608152602001906001900390816108d75790505b5090506000836001600160401b038111156109095761090961260d565b60405190808252806020026020018201604052801561093c57816020015b60608152602001906001900390816109275790505b50905060005b848110156109f85788818151811061095c5761095c612971565b602002602001015184828151811061097657610976612971565b60200260200101818152505087818151811061099457610994612971565b60200260200101518382815181106109ae576109ae612971565b60200260200101819052508681815181106109cb576109cb612971565b60200260200101518282815181106109e5576109e5612971565b6020908102919091010152600101610942565b5091989097509095509350505050565b600254600081815260036020819052604090912090600182015460ff166006811115610a3657610a36612750565b14610aa35760405162461bcd60e51b815260206004820152603260248201527f4d6174636865732063616e206f6e6c792062652073657420757020696e20746860448201527132902132ba399027b832b71039ba30ba329760711b60648201526084015b60405180910390fd5b60038101546002811015610b085760405162461bcd60e51b815260206004820152602660248201527f4174206c656173742074776f207465616d73206e656564656420666f72206d616044820152653a31b432b99760d11b6064820152608401610a9a565b6000610b156002836129cc565b6001600160401b03811115610b2c57610b2c61260d565b604051908082528060200260200182016040528015610b55578160200160208202803683370190505b5090506000610b656002846129cc565b6001600160401b03811115610b7c57610b7c61260d565b604051908082528060200260200182016040528015610ba5578160200160208202803683370190505b5090506000610bb56002856129cc565b6001600160401b03811115610bcc57610bcc61260d565b604051908082528060200260200182016040528015610bf5578160200160208202803683370190505b5090506000610c056002866129cc565b6001600160401b03811115610c1c57610c1c61260d565b604051908082528060200260200182016040528015610c45578160200160208202803683370190505b50905060005b85811015610d82576000610c5f82886129e0565b6007546001600160a01b031663b37217a4610c7a858e6129f3565b6040518263ffffffff1660e01b8152600401610c9891815260200190565b602060405180830381865afa158015610cb5573d6000803e3d6000fd5b505050506040513d601f19601f82011682018060405250810190610cd99190612a06565b610ce39190612a1f565b610ced90836129f3565b90506000886003018281548110610d0657610d06612971565b90600052602060002001549050886003018381548110610d2857610d28612971565b9060005260206000200154896003018381548110610d4857610d48612971565b906000526020600020018190555080896003018481548110610d6c57610d6c612971565b6000918252602090912001555050600101610c4b565b5060005b610d916002876129cc565b81101561101b57600060038801610da9836002612a33565b81548110610db957610db9612971565b6000918252602082200154915060038901610dd5846002612a33565b610de09060016129f3565b81548110610df057610df0612971565b9060005260206000200154905060006002600760009054906101000a90046001600160a01b03166001600160a01b031663b37217a4868f610e3191906129f3565b6040518263ffffffff1660e01b8152600401610e4f91815260200190565b602060405180830381865afa158015610e6c573d6000803e3d6000fd5b505050506040513d601f19601f82011682018060405250810190610e909190612a06565b610e9a9190612a1f565b15610ea6576001610ea9565b60005b90506000610eb88b600b015490565b90506040518060a0016040528082815260200185815260200184815260200160008152602001836001811115610ef057610ef0612750565b8152508b60050160008381526020019081526020016000206000820151816000015560208201518160010155604082015181600201556060820151816003015560808201518160040160006101000a81548160ff02191690836001811115610f5a57610f5a612750565b02179055505050600b8b018054600101905580898681518110610f7f57610f7f612971565b60200260200101818152505083888681518110610f9e57610f9e612971565b60200260200101818152505082878681518110610fbd57610fbd612971565b60200260200101818152505081868681518110610fdc57610fdc612971565b60200260200101906001811115610ff557610ff5612750565b9081600181111561100857611008612750565b9052505060019093019250610d86915050565b50867f555f2bee292e64c33376a230298bd6e5e9502ee97cd80ce83a2e3dad38835089858585856040516110529493929190612a4a565b60405180910390a25050505050505050565b60025460008181526003602052604090206004600182015460ff16600681111561109057611090612750565b146110dd5760405162461bcd60e51b815260206004820152601e60248201527f4c6561677565206973206e6f7420696e2072756e6e696e6720737461746500006044820152606401610a9a565b600381015460041015611138576110f861022f82600b015490565b6000600b82015560005b600b8201548110156111205761111883826115ef565b600101611102565b5061112a82611d88565b61113382611e46565b6110dd565b6001808201805460069260ff1990911690835b02179055505050565b600081815260036020908152604080832085845260040190915290205460ff165b92915050565b600460205260009081526040902060018101546002820180546001600160a01b0390921692916111aa90612937565b80601f01602080910402602001604051908101604052809291908181526020018280546111d690612937565b80156112235780601f106111f857610100808354040283529160200191611223565b820191906000526020600020905b81548152906001019060200180831161120657829003601f168201915b5050505050905082565b6000818152600360208181526040808420805460018201546002830154600a8401549684018054865181890281018901909752808752899889986060988a98979660ff1695949390918491908301828280156112a857602002820191906000526020600020905b815481526020019060010190808311611294575b50505050509150955095509550955095505091939590929450565b600660025460009081526003602052604090206001015460ff1660068111156112ee576112ee612750565b14806112fa5750600254155b6113465760405162461bcd60e51b815260206004820152601d60248201527f50726576696f7573206c6561677565206e6f7420636f6e636c756465640000006044820152606401610a9a565b600280549060006113568361299d565b90915550506002805460008181526003602052604090209081556001808201805460ff1916909117905534910155565b6000600384146113d85760405162461bcd60e51b815260206004820152601d60248201527f4d757374207374616b652065786163746c79207468726565204e4654730000006044820152606401610a9a565b60006113e360015490565b60008181526004602052604081209192505b868110156115b25760065433906001600160a01b0316636352211e8a8a8581811061142257611422612971565b905060200201356040518263ffffffff1660e01b815260040161144791815260200190565b602060405180830381865afa158015611464573d6000803e3d6000fd5b505050506040513d601f19601f820116820180604052508101906114889190612adb565b6001600160a01b0316146114de5760405162461bcd60e51b815260206004820152601860248201527f4e6f7420746865206f776e6572206f6620746865204e465400000000000000006044820152606401610a9a565b6006546001600160a01b03166323b872dd33308b8b8681811061150357611503612971565b6040516001600160e01b031960e088901b1681526001600160a01b03958616600482015294909316602485015250602090910201356044820152606401600060405180830381600087803b15801561155a57600080fd5b505af115801561156e573d6000803e3d6000fd5b505050508160000188888381811061158857611588612971565b835460018082018655600095865260209586902092909502939093013592019190915550016113f5565b506001810180546001600160a01b03191633179055600281016115d6858783612b49565b506115e5600180546001019055565b5095945050505050565b60008281526003602090815260408083208484526005810190925282206001810154600482015492939192611627919060ff16612057565b60028301546004840154919250600091611644919060ff16612057565b905060008686604051602001611664929190918252602082015260400190565b60408051808303601f19018152908290528051602090910120600754632cdc85e960e21b8352600483018290529092506000916001600160a01b039091169063b37217a490602401602060405180830381865afa1580156116c9573d6000803e3d6000fd5b505050506040513d601f19601f820116820180604052508101906116ed9190612a06565b905060006116fc606483612a1f565b9050838510801561170d5750601481105b1561172e5761171d601483612a1f565b61172790866129f3565b945061175a565b848410801561173d5750601481105b1561175a5761174d601483612a1f565b61175790856129f3565b93505b83851161176b578560020154611771565b85600101545b8660030181905550505050505050505050565b600160025460009081526003602052604090206001015460ff1660068111156117af576117af612750565b146117f35760405162461bcd60e51b8152602060048201526014602482015273115b9c9bdb1b1b595b9d081a5cc818db1bdcd95960621b6044820152606401610a9a565b60006117fe826104a8565b925050506001600160a01b038116331461184b5760405162461bcd60e51b815260206004820152600e60248201526d2737ba103a32b0b69037bbb732b960911b6044820152606401610a9a565b506002805460009081526003602081815260408084209092018054600181810183559185528285200186905593548352818320948352600490940190935291909120805460ff19169091179055565b600081815260036020526040902060018082015460ff1660068111156118c2576118c2612750565b146119195760405162461bcd60e51b815260206004820152602160248201527f4c6561677565206973206e6f7420696e20656e726f6c6c6d656e7420737461746044820152606560f81b6064820152608401610a9a565b6001808201805460039260ff19909116908361114b565b600081815260036020819052604090912090600182015460ff16600681111561195b5761195b612750565b146119a85760405162461bcd60e51b815260206004820152601e60248201527f4c6561677565206973206e6f7420696e2062657474696e6720737461746500006044820152606401610a9a565b6001808201805460049260ff19909116908361114b565b600083815260036020819052604090912090600182015460ff1660068111156119ea576119ea612750565b14611a2f5760405162461bcd60e51b815260206004820152601560248201527442657474696e67206973206e6f742061637469766560581b6044820152606401610a9a565b600083815260048201602052604090205460ff16611a9a5760405162461bcd60e51b815260206004820152602260248201527f5465616d20646f6573206e6f7420657869737420696e2074686973206c656167604482015261756560f01b6064820152608401610a9a565b33600090815260078201602090815260408083208684529091528120549003611ae2573360009081526008820160209081526040822080546001810182559083529120018390555b336000908152600782016020908152604080832086845290915281208054849290611b0e9084906129f3565b9091555050600083815260068201602052604081208054849290611b339084906129f3565b925050819055508181600a016000828254611b4e91906129f3565b909155505050505050565b60008281526003602090815260408083206001600160a01b038516845260088101909252808320805433855291909320546060938493929091611bcf5760405162461bcd60e51b815260206004820152600e60248201526d139bc818995d1cc81c1b1858d95960921b6044820152606401610a9a565b806001600160401b03811115611be757611be761260d565b604051908082528060200260200182016040528015611c10578160200160208202803683370190505b509450806001600160401b03811115611c2b57611c2b61260d565b604051908082528060200260200182016040528015611c54578160200160208202803683370190505b50935060005b81811015611d7d576000838281548110611c7657611c76612971565b60009182526020808320909101546001600160a01b038b168352600788018252604080842082855290925291205490915015611d155780878381518110611cbf57611cbf612971565b6020908102919091018101919091526001600160a01b0389166000908152600787018252604080822084835290925220548651879084908110611d0457611d04612971565b602002602001018181525050611d74565b60405162461bcd60e51b815260206004820152602e60248201527f426574206461746120636f72727570746564206f7220756e696e697469616c6960448201526d3d32b2103132ba103337bab7321760911b6064820152608401610a9a565b50600101611c5a565b505050509250929050565b6000818152600360208190526040822090810180549192611db59190611daf600185612c08565b866121e5565b606060005b82811015611e0757836003018181548110611dd757611dd7612971565b9060005260206000200154828281518110611df457611df4612971565b6020908102919091010152600101611dba565b50837f4bd17bf685bdf35f38698baf9b7e82e801939a5853f089781f2a66cb9bad046882604051611e389190612c2f565b60405180910390a250505050565b600081815260036020819052604090912090810154611e66600282612a1f565b15611f9957600060038301611e7c6001846129e0565b81548110611e8c57611e8c612971565b9060005260206000200154905060005b600082815260046020526040902054811015611f71576006546000838152600460205260409020600181015481546001600160a01b03938416936323b872dd9330939091169186908110611ef257611ef2612971565b6000918252602090912001546040516001600160e01b031960e086901b1681526001600160a01b0393841660048201529290911660248301526044820152606401600060405180830381600087803b158015611f4d57600080fd5b505af1158015611f61573d6000803e3d6000fd5b505060019092019150611e9c9050565b5060008181526004840160205260409020805460ff1916905581611f9481612c42565b925050505b6000611fa66002836129cc565b6001600160401b03811115611fbd57611fbd61260d565b604051908082528060200260200182016040528015611fe6578160200160208202803683370190505b50905060005b815181101561203a5783600301818154811061200a5761200a612971565b906000526020600020015482828151811061202757612027612971565b6020908102919091010152600101611fec565b50805161205090600385019060208401906123d0565b5050505050565b600082815260046020526040812081805b82548110156121dc5760065483546000916001600160a01b03169063d05dcc6a9086908590811061209b5761209b612971565b90600052602060002001546040518263ffffffff1660e01b81526004016120c491815260200190565b602060405180830381865afa1580156120e1573d6000803e3d6000fd5b505050506040513d601f19601f820116820180604052508101906121059190612a06565b600654604051634649481360e01b815260048101839052919250600091829182916001600160a01b0390911690634649481390602401608060405180830381865afa158015612158573d6000803e3d6000fd5b505050506040513d601f19601f8201168201806040525081019061217c9190612c59565b919550935091506001905089600181111561219957612199612750565b036121af576121a881846129f3565b95506121cc565b60008960018111156121c3576121c3612750565b036121cc578195505b5050600190920191506120689050565b50949350505050565b60008181526003602052604090208383808203612204575050506123ca565b600060068401818960026122188b8b612c08565b6122229190612c8f565b61222c908b612cbd565b8154811061223c5761223c612971565b906000526020600020015481526020019081526020016000205490505b81831361239d575b808460060160008a868154811061227a5761227a612971565b906000526020600020015481526020019081526020016000205410156122ac57826122a481612ce5565b935050612261565b8360060160008984815481106122c4576122c4612971565b90600052602060002001548152602001908152602001600020548110156122f757816122ef81612cfd565b9250506122ac565b8183136123985787828154811061231057612310612971565b906000526020600020015488848154811061232d5761232d612971565b906000526020600020015489858154811061234a5761234a612971565b9060005260206000200160008b868154811061236857612368612971565b60009182526020909120019290925591909155508261238681612ce5565b935050818061239490612cfd565b9250505b612259565b818712156123b1576123b1888884886121e5565b858312156123c5576123c5888488886121e5565b505050505b50505050565b82805482825590600052602060002090810192821561240b579160200282015b8281111561240b5782518255916020019190600101906123f0565b5061241792915061241b565b5090565b5b80821115612417576000815560010161241c565b60006020828403121561244257600080fd5b5035919050565b6000815180845260005b8181101561246f57602081850181015186830182015201612453565b506000602082860101526020601f19601f83011685010191505092915050565b60008151808452602080850194506020840160005b838110156124c0578151875295820195908201906001016124a4565b509495945050505050565b6060815260006124de6060830186612449565b82810360208401526124f0818661248f565b91505060018060a01b0383166040830152949350505050565b6001600160a01b038116811461251e57600080fd5b50565b60006020828403121561253357600080fd5b813561253e81612509565b9392505050565b606081526000612558606083018661248f565b6020838203818501528186518084528284019150828160051b85010183890160005b838110156125a857601f19878403018552612596838351612449565b9486019492509085019060010161257a565b50508681036040880152875180825284820195509250600583901b81018401915083880160005b848110156125fd57601f198385030187526125eb84835161248f565b968601969350908501906001016125cf565b50919a9950505050505050505050565b634e487b7160e01b600052604160045260246000fd5b6000806000806080858703121561263957600080fd5b843561264481612509565b9350602085013561265481612509565b92506040850135915060608501356001600160401b038082111561267757600080fd5b818701915087601f83011261268b57600080fd5b81358181111561269d5761269d61260d565b604051601f8201601f19908116603f011681019083821181831017156126c5576126c561260d565b816040528281528a60208487010111156126de57600080fd5b82602086016020830137600060208483010152809550505050505092959194509250565b6000806040838503121561271557600080fd5b50508035926020909101359150565b6001600160a01b038316815260406020820181905260009061274890830184612449565b949350505050565b634e487b7160e01b600052602160045260246000fd5b6007811061277657612776612750565b9052565b85815261278a6020820186612766565b83604082015260a0606082015260006127a660a083018561248f565b90508260808301529695505050505050565b600080600080604085870312156127ce57600080fd5b84356001600160401b03808211156127e557600080fd5b818701915087601f8301126127f957600080fd5b81358181111561280857600080fd5b8860208260051b850101111561281d57600080fd5b60209283019650945090860135908082111561283857600080fd5b818701915087601f83011261284c57600080fd5b81358181111561285b57600080fd5b88602082850101111561286d57600080fd5b95989497505060200194505050565b85815260a081016128906020830187612766565b846040830152836060830152825160808301529695505050505050565b6000806000606084860312156128c257600080fd5b505081359360208301359350604090920135919050565b600080604083850312156128ec57600080fd5b8235915060208301356128fe81612509565b809150509250929050565b60408152600061291c604083018561248f565b828103602084015261292e818561248f565b95945050505050565b600181811c9082168061294b57607f821691505b60208210810361296b57634e487b7160e01b600052602260045260246000fd5b50919050565b634e487b7160e01b600052603260045260246000fd5b634e487b7160e01b600052601160045260246000fd5b6000600182016129af576129af612987565b5060010190565b634e487b7160e01b600052601260045260246000fd5b6000826129db576129db6129b6565b500490565b8181038181111561117557611175612987565b8082018082111561117557611175612987565b600060208284031215612a1857600080fd5b5051919050565b600082612a2e57612a2e6129b6565b500690565b808202811582820484141761117557611175612987565b608081526000612a5d608083018761248f565b60208382036020850152612a71828861248f565b91508382036040850152612a85828761248f565b84810360608601528551808252602080880194509091019060005b81811015612acc57845160028110612aba57612aba612750565b83529383019391830191600101612aa0565b50909998505050505050505050565b600060208284031215612aed57600080fd5b815161253e81612509565b601f821115612b44576000816000526020600020601f850160051c81016020861015612b215750805b601f850160051c820191505b81811015612b4057828155600101612b2d565b5050505b505050565b6001600160401b03831115612b6057612b6061260d565b612b7483612b6e8354612937565b83612af8565b6000601f841160018114612ba85760008515612b905750838201355b600019600387901b1c1916600186901b178355612050565b600083815260209020601f19861690835b82811015612bd95786850135825560209485019460019092019101612bb9565b5086821015612bf65760001960f88860031b161c19848701351681555b505060018560011b0183555050505050565b8181036000831280158383131683831282161715612c2857612c28612987565b5092915050565b60208152600061253e602083018461248f565b600081612c5157612c51612987565b506000190190565b60008060008060808587031215612c6f57600080fd5b505082516020840151604085015160609095015191969095509092509050565b600082612c9e57612c9e6129b6565b600160ff1b821460001984141615612cb857612cb8612987565b500590565b8082018281126000831280158216821582161715612cdd57612cdd612987565b505092915050565b60006001600160ff1b0182016129af576129af612987565b6000600160ff1b8201612c5157612c5161298756fea264697066735822122088099bcb0d43eaf3084bf6bbbb5f66b292724c7c3820ee671f9036a01a2dfbef64736f6c63430008180033","linkReferences":{}},"methodIdentifiers":{"cosmoShips()":"4678f27b","createTeam(uint256[],string)":"7df0b5db","currentLeagueId()":"496963b1","determineMatchOutcome(uint256,uint256)":"849851e1","endBettingAndStartGame(uint256)":"c84054cf","endEnrollmentAndStartBetting(uint256)":"b62f1242","enrollToLeague(uint256)":"885fb865","getLeague(uint256)":"45516aaa","getTeam(uint256)":"008e0f1b","getTeamsByOwner(address)":"02e95e9c","getUserBets(uint256,address)":"fa744dd3","initializeLeague()":"6fb984ef","isTeamEnrolled(uint256,uint256)":"39bb1e5c","leagues(uint256)":"c648fefe","onERC721Received(address,address,uint256,bytes)":"150b7a02","placeBet(uint256,uint256,uint256)":"e71c9697","rng()":"d605787b","runGameLeague()":"339c9f28","setupMatches(uint256)":"236aa56b","stakes(address)":"16934fc4","teams(uint256)":"3ed2b77a"},"id":43}