{"abi":[{"type":"constructor","inputs":[{"name":"_nftAddress","type":"address","internalType":"address"},{"name":"_rng","type":"address","internalType":"address"}],"stateMutability":"nonpayable"},{"type":"function","name":"cosmoShips","inputs":[],"outputs":[{"name":"","type":"address","internalType":"contract CosmoShips"}],"stateMutability":"view"},{"type":"function","name":"createTeam","inputs":[{"name":"nftIds","type":"uint256[]","internalType":"uint256[]"},{"name":"teamName","type":"string","internalType":"string"}],"outputs":[{"name":"","type":"uint256","internalType":"uint256"}],"stateMutability":"nonpayable"},{"type":"function","name":"currentLeagueId","inputs":[],"outputs":[{"name":"","type":"uint256","internalType":"uint256"}],"stateMutability":"view"},{"type":"function","name":"determineMatchOutcome","inputs":[{"name":"leagueId","type":"uint256","internalType":"uint256"},{"name":"gameId","type":"uint256","internalType":"uint256"}],"outputs":[],"stateMutability":"nonpayable"},{"type":"function","name":"endBettingAndStartGame","inputs":[{"name":"leagueId","type":"uint256","internalType":"uint256"}],"outputs":[],"stateMutability":"nonpayable"},{"type":"function","name":"endEnrollmentAndStartBetting","inputs":[],"outputs":[],"stateMutability":"nonpayable"},{"type":"function","name":"enrollToLeague","inputs":[{"name":"teamId","type":"uint256","internalType":"uint256"}],"outputs":[],"stateMutability":"nonpayable"},{"type":"function","name":"getEnrolledTeams","inputs":[],"outputs":[{"name":"","type":"uint256[]","internalType":"uint256[]"},{"name":"","type":"string[]","internalType":"string[]"},{"name":"","type":"address[]","internalType":"address[]"}],"stateMutability":"view"},{"type":"function","name":"getLeague","inputs":[{"name":"leagueId","type":"uint256","internalType":"uint256"}],"outputs":[{"name":"id","type":"uint256","internalType":"uint256"},{"name":"state","type":"uint8","internalType":"enum GameLeague.LeagueState"},{"name":"prizePool","type":"uint256","internalType":"uint256"},{"name":"enrolledTeams","type":"uint256[]","internalType":"uint256[]"},{"name":"totalBetsInLeague","type":"uint256","internalType":"uint256"}],"stateMutability":"view"},{"type":"function","name":"getTeam","inputs":[{"name":"teamId","type":"uint256","internalType":"uint256"}],"outputs":[{"name":"","type":"string","internalType":"string"},{"name":"","type":"uint256[]","internalType":"uint256[]"},{"name":"","type":"address","internalType":"address"}],"stateMutability":"view"},{"type":"function","name":"getTeamsByOwner","inputs":[{"name":"owner","type":"address","internalType":"address"}],"outputs":[{"name":"teamIds","type":"uint256[]","internalType":"uint256[]"},{"name":"teamNames","type":"string[]","internalType":"string[]"},{"name":"tokenIndexes","type":"uint256[][]","internalType":"uint256[][]"}],"stateMutability":"view"},{"type":"function","name":"getUserBets","inputs":[{"name":"leagueId","type":"uint256","internalType":"uint256"},{"name":"user","type":"address","internalType":"address"}],"outputs":[{"name":"teamIds","type":"uint256[]","internalType":"uint256[]"},{"name":"betAmounts","type":"uint256[]","internalType":"uint256[]"}],"stateMutability":"view"},{"type":"function","name":"initializeLeague","inputs":[],"outputs":[],"stateMutability":"payable"},{"type":"function","name":"isTeamEnrolled","inputs":[{"name":"teamId","type":"uint256","internalType":"uint256"},{"name":"leagueId","type":"uint256","internalType":"uint256"}],"outputs":[{"name":"","type":"bool","internalType":"bool"}],"stateMutability":"view"},{"type":"function","name":"leagues","inputs":[{"name":"","type":"uint256","internalType":"uint256"}],"outputs":[{"name":"id","type":"uint256","internalType":"uint256"},{"name":"state","type":"uint8","internalType":"enum GameLeague.LeagueState"},{"name":"prizePool","type":"uint256","internalType":"uint256"},{"name":"totalBetsInLeague","type":"uint256","internalType":"uint256"},{"name":"gameIdCounter","type":"tuple","internalType":"struct Counters.Counter","components":[{"name":"_value","type":"uint256","internalType":"uint256"}]}],"stateMutability":"view"},{"type":"function","name":"onERC721Received","inputs":[{"name":"","type":"address","internalType":"address"},{"name":"","type":"address","internalType":"address"},{"name":"","type":"uint256","internalType":"uint256"},{"name":"","type":"bytes","internalType":"bytes"}],"outputs":[{"name":"","type":"bytes4","internalType":"bytes4"}],"stateMutability":"nonpayable"},{"type":"function","name":"placeBet","inputs":[{"name":"leagueId","type":"uint256","internalType":"uint256"},{"name":"teamId","type":"uint256","internalType":"uint256"},{"name":"amount","type":"uint256","internalType":"uint256"}],"outputs":[],"stateMutability":"nonpayable"},{"type":"function","name":"rng","inputs":[],"outputs":[{"name":"","type":"address","internalType":"contract IRandomNumberGenerator"}],"stateMutability":"view"},{"type":"function","name":"runGameLeague","inputs":[],"outputs":[],"stateMutability":"nonpayable"},{"type":"function","name":"setupMatches","inputs":[{"name":"seed","type":"uint256","internalType":"uint256"}],"outputs":[],"stateMutability":"nonpayable"},{"type":"function","name":"stakes","inputs":[{"name":"","type":"address","internalType":"address"}],"outputs":[{"name":"","type":"uint256","internalType":"uint256"}],"stateMutability":"view"},{"type":"function","name":"teams","inputs":[{"name":"","type":"uint256","internalType":"uint256"}],"outputs":[{"name":"owner","type":"address","internalType":"address"},{"name":"name","type":"string","internalType":"string"}],"stateMutability":"view"},{"type":"event","name":"GamesSetup","inputs":[{"name":"leagueId","type":"uint256","indexed":true,"internalType":"uint256"},{"name":"gameIds","type":"uint256[]","indexed":false,"internalType":"uint256[]"},{"name":"team1s","type":"uint256[]","indexed":false,"internalType":"uint256[]"},{"name":"team2s","type":"uint256[]","indexed":false,"internalType":"uint256[]"},{"name":"gameTypes","type":"uint8[]","indexed":false,"internalType":"enum GameLeague.GameType[]"}],"anonymous":false},{"type":"event","name":"Leaderboard","inputs":[{"name":"leagueId","type":"uint256","indexed":true,"internalType":"uint256"},{"name":"leaderboard","type":"uint256[]","indexed":false,"internalType":"uint256[]"}],"anonymous":false}],"bytecode":{"object":"0x60806040523480156200001157600080fd5b506040516200310e3803806200310e833981016040819052620000349162000083565b600680546001600160a01b039384166001600160a01b03199182161790915560078054929093169116179055620000bb565b80516001600160a01b03811681146200007e57600080fd5b919050565b600080604083850312156200009757600080fd5b620000a28362000066565b9150620000b26020840162000066565b90509250929050565b61304380620000cb6000396000f3fe6080604052600436106101345760003560e01c80635d7c9276116100ab578063ac8cb21d1161006f578063ac8cb21d146103bf578063c648fefe146103d4578063c84054cf1461043e578063d605787b1461045e578063e71c96971461047e578063fa744dd31461049e57600080fd5b80635d7c9276146103335780636fb984ef146103575780637df0b5db1461035f578063849851e11461037f578063885fb8651461039f57600080fd5b8063339c9f28116100fd578063339c9f281461024157806339bb1e5c146102565780633ed2b77a1461028657806345516aaa146102b45780634678f27b146102e5578063496963b11461031d57600080fd5b80628e0f1b1461013957806302e95e9c14610171578063150b7a02146101a057806316934fc4146101e4578063236aa56b1461021f575b600080fd5b34801561014557600080fd5b5061015961015436600461269d565b6104cc565b60405161016893929190612738565b60405180910390f35b34801561017d57600080fd5b5061019161018c36600461278e565b6105e6565b6040516101689392919061280c565b3480156101ac57600080fd5b506101cb6101bb3660046128a9565b630a85bd0160e11b949350505050565b6040516001600160e01b03199091168152602001610168565b3480156101f057600080fd5b506102116101ff36600461278e565b60056020526000908152604090205481565b604051908152602001610168565b34801561022b57600080fd5b5061023f61023a36600461269d565b610a2c565b005b34801561024d57600080fd5b5061023f611088565b34801561026257600080fd5b50610276610271366004612988565b611178565b6040519015158152602001610168565b34801561029257600080fd5b506102a66102a136600461269d565b61119f565b6040516101689291906129aa565b3480156102c057600080fd5b506102d46102cf36600461269d565b611251565b604051610168959493929190612a00565b3480156102f157600080fd5b50600654610305906001600160a01b031681565b6040516001600160a01b039091168152602001610168565b34801561032957600080fd5b5061021160025481565b34801561033f57600080fd5b506103486112e7565b60405161016893929190612a3e565b61023f61152d565b34801561036b57600080fd5b5061021161037a366004612ab3565b6115f0565b34801561038b57600080fd5b5061023f61039a366004612988565b611859565b3480156103ab57600080fd5b5061023f6103ba36600461269d565b6119ee565b3480156103cb57600080fd5b5061023f611b04565b3480156103e057600080fd5b5061042d6103ef36600461269d565b600360209081526000918252604091829020805460018201546002830154600a8401548651958601909652600b909301548452909360ff9091169285565b604051610168959493929190612b77565b34801561044a57600080fd5b5061023f61045936600461269d565b611b9d565b34801561046a57600080fd5b50600754610305906001600160a01b031681565b34801561048a57600080fd5b5061023f610499366004612ba8565b611c2c565b3480156104aa57600080fd5b506104be6104b9366004612bd4565b611dc6565b604051610168929190612c04565b600081815260046020526040812060018101546002820180546060948594909390929183916001600160a01b031690839061050690612c32565b80601f016020809104026020016040519081016040528092919081815260200182805461053290612c32565b801561057f5780601f106105545761010080835404028352916020019161057f565b820191906000526020600020905b81548152906001019060200180831161056257829003601f168201915b50505050509250818054806020026020016040519081016040528092919081815260200182805480156105d157602002820191906000526020600020905b8154815260200190600101908083116105bd575b50505050509150935093509350509193909250565b606080606060006105f660015490565b9050806001600160401b0381111561061057610610612893565b604051908082528060200260200182016040528015610639578160200160208202803683370190505b509350806001600160401b0381111561065457610654612893565b60405190808252806020026020018201604052801561068757816020015b60608152602001906001900390816106725790505b509250806001600160401b038111156106a2576106a2612893565b6040519080825280602002602001820160405280156106d557816020015b60608152602001906001900390816106c05790505b5091506000805b8281101561087c576000818152600460205260409020600101546001600160a01b03808916911603610874578086838151811061071b5761071b612c6c565b60200260200101818152505060046000828152602001908152602001600020600201805461074890612c32565b80601f016020809104026020016040519081016040528092919081815260200182805461077490612c32565b80156107c15780601f10610796576101008083540402835291602001916107c1565b820191906000526020600020905b8154815290600101906020018083116107a457829003601f168201915b50505050508583815181106107d8576107d8612c6c565b60200260200101819052506004600082815260200190815260200160002060000180548060200260200160405190810160405280929190818152602001828054801561084357602002820191906000526020600020905b81548152602001906001019080831161082f575b505050505084838151811061085a5761085a612c6c565b6020026020010181905250818061087090612c98565b9250505b6001016106dc565b506000816001600160401b0381111561089757610897612893565b6040519080825280602002602001820160405280156108c0578160200160208202803683370190505b5090506000826001600160401b038111156108dd576108dd612893565b60405190808252806020026020018201604052801561091057816020015b60608152602001906001900390816108fb5790505b5090506000836001600160401b0381111561092d5761092d612893565b60405190808252806020026020018201604052801561096057816020015b606081526020019060019003908161094b5790505b50905060005b84811015610a1c5788818151811061098057610980612c6c565b602002602001015184828151811061099a5761099a612c6c565b6020026020010181815250508781815181106109b8576109b8612c6c565b60200260200101518382815181106109d2576109d2612c6c565b60200260200101819052508681815181106109ef576109ef612c6c565b6020026020010151828281518110610a0957610a09612c6c565b6020908102919091010152600101610966565b5091989097509095509350505050565b600254600081815260036020819052604090912090600182015460ff166006811115610a5a57610a5a6129d6565b14610ac75760405162461bcd60e51b815260206004820152603260248201527f4d6174636865732063616e206f6e6c792062652073657420757020696e20746860448201527132902132ba399027b832b71039ba30ba329760711b60648201526084015b60405180910390fd5b60038101546002811015610b2c5760405162461bcd60e51b815260206004820152602660248201527f4174206c656173742074776f207465616d73206e656564656420666f72206d616044820152653a31b432b99760d11b6064820152608401610abe565b6000610b39600283612cc7565b6001600160401b03811115610b5057610b50612893565b604051908082528060200260200182016040528015610b79578160200160208202803683370190505b5090506000610b89600284612cc7565b6001600160401b03811115610ba057610ba0612893565b604051908082528060200260200182016040528015610bc9578160200160208202803683370190505b5090506000610bd9600285612cc7565b6001600160401b03811115610bf057610bf0612893565b604051908082528060200260200182016040528015610c19578160200160208202803683370190505b5090506000610c29600286612cc7565b6001600160401b03811115610c4057610c40612893565b604051908082528060200260200182016040528015610c69578160200160208202803683370190505b50905060005b85811015610da6576000610c838288612cdb565b6007546001600160a01b031663b37217a4610c9e858e612cee565b6040518263ffffffff1660e01b8152600401610cbc91815260200190565b602060405180830381865afa158015610cd9573d6000803e3d6000fd5b505050506040513d601f19601f82011682018060405250810190610cfd9190612d01565b610d079190612d1a565b610d119083612cee565b90506000886003018281548110610d2a57610d2a612c6c565b90600052602060002001549050886003018381548110610d4c57610d4c612c6c565b9060005260206000200154896003018381548110610d6c57610d6c612c6c565b906000526020600020018190555080896003018481548110610d9057610d90612c6c565b6000918252602090912001555050600101610c6f565b5060005b610db5600287612cc7565b81101561103f57600060038801610dcd836002612d2e565b81548110610ddd57610ddd612c6c565b6000918252602082200154915060038901610df9846002612d2e565b610e04906001612cee565b81548110610e1457610e14612c6c565b9060005260206000200154905060006002600760009054906101000a90046001600160a01b03166001600160a01b031663b37217a4868f610e559190612cee565b6040518263ffffffff1660e01b8152600401610e7391815260200190565b602060405180830381865afa158015610e90573d6000803e3d6000fd5b505050506040513d601f19601f82011682018060405250810190610eb49190612d01565b610ebe9190612d1a565b15610eca576001610ecd565b60005b90506000610edc8b600b015490565b90506040518060a0016040528082815260200185815260200184815260200160008152602001836001811115610f1457610f146129d6565b8152508b60050160008381526020019081526020016000206000820151816000015560208201518160010155604082015181600201556060820151816003015560808201518160040160006101000a81548160ff02191690836001811115610f7e57610f7e6129d6565b02179055505050600b8b018054600101905580898681518110610fa357610fa3612c6c565b60200260200101818152505083888681518110610fc257610fc2612c6c565b60200260200101818152505082878681518110610fe157610fe1612c6c565b6020026020010181815250508186868151811061100057611000612c6c565b60200260200101906001811115611019576110196129d6565b9081600181111561102c5761102c6129d6565b9052505060019093019250610daa915050565b50867f555f2bee292e64c33376a230298bd6e5e9502ee97cd80ce83a2e3dad38835089858585856040516110769493929190612d45565b60405180910390a25050505050505050565b60025460008181526003602052604090206004600182015460ff1660068111156110b4576110b46129d6565b146111015760405162461bcd60e51b815260206004820152601e60248201527f4c6561677565206973206e6f7420696e2072756e6e696e6720737461746500006044820152606401610abe565b60038101546004101561115c5761111c61023a82600b015490565b6000600b82015560005b600b8201548110156111445761113c8382611859565b600101611126565b5061114e82611ff5565b611157826120b3565b611101565b6001808201805460069260ff1990911690835b02179055505050565b600081815260036020908152604080832085845260040190915290205460ff165b92915050565b600460205260009081526040902060018101546002820180546001600160a01b0390921692916111ce90612c32565b80601f01602080910402602001604051908101604052809291908181526020018280546111fa90612c32565b80156112475780601f1061121c57610100808354040283529160200191611247565b820191906000526020600020905b81548152906001019060200180831161122a57829003601f168201915b5050505050905082565b6000818152600360208181526040808420805460018201546002830154600a8401549684018054865181890281018901909752808752899889986060988a98979660ff1695949390918491908301828280156112cc57602002820191906000526020600020905b8154815260200190600101908083116112b8575b50505050509150955095509550955095505091939590929450565b6060806060600060036000600254815260200190815260200160002060030180548060200260200160405190810160405280929190818152602001828054801561135057602002820191906000526020600020905b81548152602001906001019080831161133c575b505050505090506000815190506000816001600160401b0381111561137757611377612893565b6040519080825280602002602001820160405280156113aa57816020015b60608152602001906001900390816113955790505b5090506000826001600160401b038111156113c7576113c7612893565b6040519080825280602002602001820160405280156113f0578160200160208202803683370190505b50905060005b8381101561151e5760006004600087848151811061141657611416612c6c565b60200260200101518152602001908152602001600020905080600201805461143d90612c32565b80601f016020809104026020016040519081016040528092919081815260200182805461146990612c32565b80156114b65780601f1061148b576101008083540402835291602001916114b6565b820191906000526020600020905b81548152906001019060200180831161149957829003601f168201915b50505050508483815181106114cd576114cd612c6c565b6020908102919091010152600181015483516001600160a01b03909116908490849081106114fd576114fd612c6c565b6001600160a01b0390921660209283029190910190910152506001016113f6565b50929690955091935090915050565b600660025460009081526003602052604090206001015460ff166006811115611558576115586129d6565b14806115645750600254155b6115b05760405162461bcd60e51b815260206004820152601d60248201527f50726576696f7573206c6561677565206e6f7420636f6e636c756465640000006044820152606401610abe565b600280549060006115c083612c98565b90915550506002805460008181526003602052604090209081556001808201805460ff1916909117905534910155565b6000600384146116425760405162461bcd60e51b815260206004820152601d60248201527f4d757374207374616b652065786163746c79207468726565204e4654730000006044820152606401610abe565b600061164d60015490565b60008181526004602052604081209192505b8681101561181c5760065433906001600160a01b0316636352211e8a8a8581811061168c5761168c612c6c565b905060200201356040518263ffffffff1660e01b81526004016116b191815260200190565b602060405180830381865afa1580156116ce573d6000803e3d6000fd5b505050506040513d601f19601f820116820180604052508101906116f29190612dd6565b6001600160a01b0316146117485760405162461bcd60e51b815260206004820152601860248201527f4e6f7420746865206f776e6572206f6620746865204e465400000000000000006044820152606401610abe565b6006546001600160a01b03166323b872dd33308b8b8681811061176d5761176d612c6c565b6040516001600160e01b031960e088901b1681526001600160a01b03958616600482015294909316602485015250602090910201356044820152606401600060405180830381600087803b1580156117c457600080fd5b505af11580156117d8573d6000803e3d6000fd5b50505050816000018888838181106117f2576117f2612c6c565b8354600180820186556000958652602095869020929095029390930135920191909155500161165f565b506001810180546001600160a01b0319163317905560028101611840858783612e44565b5061184f600180546001019055565b5095945050505050565b60008281526003602090815260408083208484526005810190925282206001810154600482015492939192611891919060ff166122c4565b600283015460048401549192506000916118ae919060ff166122c4565b9050600086866040516020016118ce929190918252602082015260400190565b60408051808303601f19018152908290528051602090910120600754632cdc85e960e21b8352600483018290529092506000916001600160a01b039091169063b37217a490602401602060405180830381865afa158015611933573d6000803e3d6000fd5b505050506040513d601f19601f820116820180604052508101906119579190612d01565b90506000611966606483612d1a565b905083851080156119775750601481105b1561199857611987601483612d1a565b6119919086612cee565b94506119c4565b84841080156119a75750601481105b156119c4576119b7601483612d1a565b6119c19085612cee565b93505b8385116119d55785600201546119db565b85600101545b8660030181905550505050505050505050565b600160025460009081526003602052604090206001015460ff166006811115611a1957611a196129d6565b14611a5d5760405162461bcd60e51b8152602060048201526014602482015273115b9c9bdb1b1b595b9d081a5cc818db1bdcd95960621b6044820152606401610abe565b6000611a68826104cc565b925050506001600160a01b0381163314611ab55760405162461bcd60e51b815260206004820152600e60248201526d2737ba103a32b0b69037bbb732b960911b6044820152606401610abe565b506002805460009081526003602081815260408084209092018054600181810183559185528285200186905593548352818320948352600490940190935291909120805460ff19169091179055565b600254600081815260036020526040902060018082015460ff166006811115611b2f57611b2f6129d6565b14611b865760405162461bcd60e51b815260206004820152602160248201527f4c6561677565206973206e6f7420696e20656e726f6c6c6d656e7420737461746044820152606560f81b6064820152608401610abe565b6001808201805460039260ff19909116908361116f565b600081815260036020819052604090912090600182015460ff166006811115611bc857611bc86129d6565b14611c155760405162461bcd60e51b815260206004820152601e60248201527f4c6561677565206973206e6f7420696e2062657474696e6720737461746500006044820152606401610abe565b6001808201805460049260ff19909116908361116f565b600083815260036020819052604090912090600182015460ff166006811115611c5757611c576129d6565b14611c9c5760405162461bcd60e51b815260206004820152601560248201527442657474696e67206973206e6f742061637469766560581b6044820152606401610abe565b600083815260048201602052604090205460ff16611d075760405162461bcd60e51b815260206004820152602260248201527f5465616d20646f6573206e6f7420657869737420696e2074686973206c656167604482015261756560f01b6064820152608401610abe565b33600090815260078201602090815260408083208684529091528120549003611d4f573360009081526008820160209081526040822080546001810182559083529120018390555b336000908152600782016020908152604080832086845290915281208054849290611d7b908490612cee565b9091555050600083815260068201602052604081208054849290611da0908490612cee565b925050819055508181600a016000828254611dbb9190612cee565b909155505050505050565b60008281526003602090815260408083206001600160a01b038516845260088101909252808320805433855291909320546060938493929091611e3c5760405162461bcd60e51b815260206004820152600e60248201526d139bc818995d1cc81c1b1858d95960921b6044820152606401610abe565b806001600160401b03811115611e5457611e54612893565b604051908082528060200260200182016040528015611e7d578160200160208202803683370190505b509450806001600160401b03811115611e9857611e98612893565b604051908082528060200260200182016040528015611ec1578160200160208202803683370190505b50935060005b81811015611fea576000838281548110611ee357611ee3612c6c565b60009182526020808320909101546001600160a01b038b168352600788018252604080842082855290925291205490915015611f825780878381518110611f2c57611f2c612c6c565b6020908102919091018101919091526001600160a01b0389166000908152600787018252604080822084835290925220548651879084908110611f7157611f71612c6c565b602002602001018181525050611fe1565b60405162461bcd60e51b815260206004820152602e60248201527f426574206461746120636f72727570746564206f7220756e696e697469616c6960448201526d3d32b2103132ba103337bab7321760911b6064820152608401610abe565b50600101611ec7565b505050509250929050565b6000818152600360208190526040822090810180549192612022919061201c600185612f03565b86612452565b606060005b828110156120745783600301818154811061204457612044612c6c565b906000526020600020015482828151811061206157612061612c6c565b6020908102919091010152600101612027565b50837f4bd17bf685bdf35f38698baf9b7e82e801939a5853f089781f2a66cb9bad0468826040516120a59190612f2a565b60405180910390a250505050565b6000818152600360208190526040909120908101546120d3600282612d1a565b15612206576000600383016120e9600184612cdb565b815481106120f9576120f9612c6c565b9060005260206000200154905060005b6000828152600460205260409020548110156121de576006546000838152600460205260409020600181015481546001600160a01b03938416936323b872dd933093909116918690811061215f5761215f612c6c565b6000918252602090912001546040516001600160e01b031960e086901b1681526001600160a01b0393841660048201529290911660248301526044820152606401600060405180830381600087803b1580156121ba57600080fd5b505af11580156121ce573d6000803e3d6000fd5b5050600190920191506121099050565b5060008181526004840160205260409020805460ff191690558161220181612f3d565b925050505b6000612213600283612cc7565b6001600160401b0381111561222a5761222a612893565b604051908082528060200260200182016040528015612253578160200160208202803683370190505b50905060005b81518110156122a75783600301818154811061227757612277612c6c565b906000526020600020015482828151811061229457612294612c6c565b6020908102919091010152600101612259565b5080516122bd906003850190602084019061263d565b5050505050565b600082815260046020526040812081805b82548110156124495760065483546000916001600160a01b03169063d05dcc6a9086908590811061230857612308612c6c565b90600052602060002001546040518263ffffffff1660e01b815260040161233191815260200190565b602060405180830381865afa15801561234e573d6000803e3d6000fd5b505050506040513d601f19601f820116820180604052508101906123729190612d01565b600654604051634649481360e01b815260048101839052919250600091829182916001600160a01b0390911690634649481390602401608060405180830381865afa1580156123c5573d6000803e3d6000fd5b505050506040513d601f19601f820116820180604052508101906123e99190612f54565b9195509350915060019050896001811115612406576124066129d6565b0361241c576124158184612cee565b9550612439565b6000896001811115612430576124306129d6565b03612439578195505b5050600190920191506122d59050565b50949350505050565b6000818152600360205260409020838380820361247157505050612637565b600060068401818960026124858b8b612f03565b61248f9190612f8a565b612499908b612fb8565b815481106124a9576124a9612c6c565b906000526020600020015481526020019081526020016000205490505b81831361260a575b808460060160008a86815481106124e7576124e7612c6c565b90600052602060002001548152602001908152602001600020541015612519578261251181612fe0565b9350506124ce565b83600601600089848154811061253157612531612c6c565b9060005260206000200154815260200190815260200160002054811015612564578161255c81612ff8565b925050612519565b8183136126055787828154811061257d5761257d612c6c565b906000526020600020015488848154811061259a5761259a612c6c565b90600052602060002001548985815481106125b7576125b7612c6c565b9060005260206000200160008b86815481106125d5576125d5612c6c565b6000918252602090912001929092559190915550826125f381612fe0565b935050818061260190612ff8565b9250505b6124c6565b8187121561261e5761261e88888488612452565b858312156126325761263288848888612452565b505050505b50505050565b828054828255906000526020600020908101928215612678579160200282015b8281111561267857825182559160200191906001019061265d565b50612684929150612688565b5090565b5b808211156126845760008155600101612689565b6000602082840312156126af57600080fd5b5035919050565b6000815180845260005b818110156126dc576020818501810151868301820152016126c0565b506000602082860101526020601f19601f83011685010191505092915050565b60008151808452602080850194506020840160005b8381101561272d57815187529582019590820190600101612711565b509495945050505050565b60608152600061274b60608301866126b6565b828103602084015261275d81866126fc565b91505060018060a01b0383166040830152949350505050565b6001600160a01b038116811461278b57600080fd5b50565b6000602082840312156127a057600080fd5b81356127ab81612776565b9392505050565b60008282518085526020808601955060208260051b8401016020860160005b848110156127ff57601f198684030189526127ed8383516126b6565b988401989250908301906001016127d1565b5090979650505050505050565b60608152600061281f60608301866126fc565b60208382038185015261283282876127b2565b915083820360408501528185518084528284019150828160051b85010183880160005b8381101561288357601f198784030185526128718383516126fc565b94860194925090850190600101612855565b50909a9950505050505050505050565b634e487b7160e01b600052604160045260246000fd5b600080600080608085870312156128bf57600080fd5b84356128ca81612776565b935060208501356128da81612776565b92506040850135915060608501356001600160401b03808211156128fd57600080fd5b818701915087601f83011261291157600080fd5b81358181111561292357612923612893565b604051601f8201601f19908116603f0116810190838211818310171561294b5761294b612893565b816040528281528a602084870101111561296457600080fd5b82602086016020830137600060208483010152809550505050505092959194509250565b6000806040838503121561299b57600080fd5b50508035926020909101359150565b6001600160a01b03831681526040602082018190526000906129ce908301846126b6565b949350505050565b634e487b7160e01b600052602160045260246000fd5b600781106129fc576129fc6129d6565b9052565b858152612a1060208201866129ec565b83604082015260a060608201526000612a2c60a08301856126fc565b90508260808301529695505050505050565b606081526000612a5160608301866126fc565b60208382036020850152612a6582876127b2565b84810360408601528551808252602080880194509091019060005b81811015612aa55784516001600160a01b031683529383019391830191600101612a80565b509098975050505050505050565b60008060008060408587031215612ac957600080fd5b84356001600160401b0380821115612ae057600080fd5b818701915087601f830112612af457600080fd5b813581811115612b0357600080fd5b8860208260051b8501011115612b1857600080fd5b602092830196509450908601359080821115612b3357600080fd5b818701915087601f830112612b4757600080fd5b813581811115612b5657600080fd5b886020828501011115612b6857600080fd5b95989497505060200194505050565b85815260a08101612b8b60208301876129ec565b846040830152836060830152825160808301529695505050505050565b600080600060608486031215612bbd57600080fd5b505081359360208301359350604090920135919050565b60008060408385031215612be757600080fd5b823591506020830135612bf981612776565b809150509250929050565b604081526000612c1760408301856126fc565b8281036020840152612c2981856126fc565b95945050505050565b600181811c90821680612c4657607f821691505b602082108103612c6657634e487b7160e01b600052602260045260246000fd5b50919050565b634e487b7160e01b600052603260045260246000fd5b634e487b7160e01b600052601160045260246000fd5b600060018201612caa57612caa612c82565b5060010190565b634e487b7160e01b600052601260045260246000fd5b600082612cd657612cd6612cb1565b500490565b8181038181111561119957611199612c82565b8082018082111561119957611199612c82565b600060208284031215612d1357600080fd5b5051919050565b600082612d2957612d29612cb1565b500690565b808202811582820484141761119957611199612c82565b608081526000612d5860808301876126fc565b60208382036020850152612d6c82886126fc565b91508382036040850152612d8082876126fc565b84810360608601528551808252602080880194509091019060005b81811015612dc757845160028110612db557612db56129d6565b83529383019391830191600101612d9b565b50909998505050505050505050565b600060208284031215612de857600080fd5b81516127ab81612776565b601f821115612e3f576000816000526020600020601f850160051c81016020861015612e1c5750805b601f850160051c820191505b81811015612e3b57828155600101612e28565b5050505b505050565b6001600160401b03831115612e5b57612e5b612893565b612e6f83612e698354612c32565b83612df3565b6000601f841160018114612ea35760008515612e8b5750838201355b600019600387901b1c1916600186901b1783556122bd565b600083815260209020601f19861690835b82811015612ed45786850135825560209485019460019092019101612eb4565b5086821015612ef15760001960f88860031b161c19848701351681555b505060018560011b0183555050505050565b8181036000831280158383131683831282161715612f2357612f23612c82565b5092915050565b6020815260006127ab60208301846126fc565b600081612f4c57612f4c612c82565b506000190190565b60008060008060808587031215612f6a57600080fd5b505082516020840151604085015160609095015191969095509092509050565b600082612f9957612f99612cb1565b600160ff1b821460001984141615612fb357612fb3612c82565b500590565b8082018281126000831280158216821582161715612fd857612fd8612c82565b505092915050565b60006001600160ff1b018201612caa57612caa612c82565b6000600160ff1b8201612f4c57612f4c612c8256fea2646970667358221220828f7082c31be802df00b9dd340d0bc55d34ff2e2b45edd54f07e2e36ed34b4d64736f6c63430008180033","linkReferences":{}},"methodIdentifiers":{"cosmoShips()":"4678f27b","createTeam(uint256[],string)":"7df0b5db","currentLeagueId()":"496963b1","determineMatchOutcome(uint256,uint256)":"849851e1","endBettingAndStartGame(uint256)":"c84054cf","endEnrollmentAndStartBetting()":"ac8cb21d","enrollToLeague(uint256)":"885fb865","getEnrolledTeams()":"5d7c9276","getLeague(uint256)":"45516aaa","getTeam(uint256)":"008e0f1b","getTeamsByOwner(address)":"02e95e9c","getUserBets(uint256,address)":"fa744dd3","initializeLeague()":"6fb984ef","isTeamEnrolled(uint256,uint256)":"39bb1e5c","leagues(uint256)":"c648fefe","onERC721Received(address,address,uint256,bytes)":"150b7a02","placeBet(uint256,uint256,uint256)":"e71c9697","rng()":"d605787b","runGameLeague()":"339c9f28","setupMatches(uint256)":"236aa56b","stakes(address)":"16934fc4","teams(uint256)":"3ed2b77a"},"id":43}